:020000040800F2
:100000000000022025BA000821BA000821BA000821
:1000100021BA000821BA000821BA00080000000037
:1000200000000000000000000000000021BA0008ED
:1000300021BA00080000000021BA000811D300080E
:1000400021BA000821BA000821BA000821BA000824
:1000500021BA000821BA000821BA000821BA000814
:1000600021BA000821BA000821BA000821BA000804
:1000700021BA000821BA000821BA000821BA0008F4
:1000800021BA000821BA000821BA000821BA0008E4
:1000900021BA000821BA000821BA000821BA0008D4
:1000A00021BA000805BF000821BA000821BA0008DB
:1000B00021BA000821BA000819D4000821BA0008A2
:1000C00021BA000821BA000821BA000821BA0008A4
:1000D00021BA000821BA000821BA000805BB0008AF
:1000E00039FC000821BA000821BA000821BA00082A
:1000F00021BA000821BA000821BA0008311301080A
:1001000021BA000821BA000821BA000821BA000863
:1001100021BA000821BA000821BA000821BA000853
:1001200021BA00085DF8000821BA000821BA0008C9
:1001300021BA000821BA000821BA000821BA000833
:1001400021BA000821BA000821BA0008A10200085B
:1001500021BA000821BA000821BA000821BA000813
:1001600021BA000821BA000821BA000821BA000803
:1001700021BA000821BA00084DF9000821BA000888
:1001800021BA000821BA000870B50120244C82B0C1
:10019000014606F093FE032600232046694602220C
:1001A0004FF4D8558DF806308DF8073000958DF84E
:1001B00004208DF8056005F02FF8204608210A225A
:1001C00005F092FB204609210A2205F08DFB20460E
:1001D0000B210A2205F088FB20460A220C2105F09B
:1001E00083FB01254FF480636946204600938DF818
:1001F00005608DF806508DF8075005F00DF80A21BE
:100200000A46204605F070FB2946802006F07EFE57
:1002100029464FF0805006F089FF02B070BD00BF44
:100220000000024000B54FF4C06083B002F080F8D7
:1002300001234321032201A88DF804108DF8053015
:100240008DF807308DF8062002F090F803B05DF8C5
:1002500004FB00BFC0EB0010064BC200A3FB02135F
:10026000D21A03EB52029208002301339A42FCD2C5
:10027000704700BF25499224074A084B02FB00F053
:10028000A3FB0023C21A03EB52029208002301339E
:100290009A42FCD2704700BFC0D401002549922485
:1002A000014800F0BBBE00BFACFD002030B50546E4
:1002B00083B0002303200193FFF7CCFF2B68134C7E
:1002C0001A69019206E0FFF7C5FF2B68013C1A6925
:1002D000019218D0019A002A4FF00300F3DA019935
:1002E0000A4A41F0010101910199196119690191CD
:1002F00003E019690191013A02D00199C907F8D4C4
:100300000320FFF7A7FF002003B030BD400D03001E
:1003100030B4C5786DB900EB820003339B10D0F880
:10032000D04006D02A46013251F8040B2060934297
:10033000F9D1002030BC7047033270B49510D0F86A
:10034000D06009D00A4600230133346842F8044BD8
:100350009D42F9D101EB8501084670BC704700BF92
:100360002DE9F00F012440220023A14284708280F5
:10037000C3705DD0002946D04278C3604FF400615D
:10038000016190F80080002A68D09C464FF46066B6
:100390004FF4886B4FF4806A4FEA421900230246FB
:1003A0000CF510670CF53065FC18E91820334B4547
:1003B0009461516502F10402F6D1C0F814A0C0F8AE
:1003C000CCB0B8F1000F18D00CF5A06202EB4814C5
:1003D0000146C1F890202032A24201F10401F8D177
:1003E0000CF5805303EB08310246C2F8D03003F518
:1003F00080538B4202F10402F7D1C0F80C61002057
:10040000BDE8F00F7047194BC1724FF4A0614FF077
:100410000C080622C180164EDFF864B0DFF864A035
:10042000144980F800809C464270C3600161B3E7C4
:100430004FF0080804224FF4A07502244FF0A043A7
:10044000C17280F800804270C58004729C460A4EDA
:10045000DFF834B0DFF834A00849E6E794464FF4FB
:1004600060664FF4886B4FF4806AA6E70000044092
:10047000000E044000080440000E00500008005028
:1004800040040440000404404004005000040050B4
:1004900038B5037A012B04464FF000052FD050F8F1
:1004A0000C2FD36843F04003D360FFF7FFFE237A9D
:1004B000627A032B14BF4FF450234FF470230AB118
:1004C00043F48013E26814209363FFF7D5FEE368DA
:1004D000217ADA68032908BF42F48032DA60227A8E
:1004E000032A37D0E378012B07D1E3689D68052202
:1004F00062F3440545F020059D60002038BDC268C8
:10050000417A936B65F3104309B143F4801393630D
:10051000D36823F4800323F0500343F010036FF3F8
:10052000C3036FF3C7136FF351436FF3D343D36028
:1005300004F10C00FFF7BAFEE378012BDDD10523AF
:1005400063F34405E36845F020059D60E378012BE3
:10055000CBD0D2E71D6B012262F39B656FF3D755B9
:100560002D2245F0805562F316451D63C820FFF724
:1005700083FEE36845F400051D63C820FFF77CFE99
:10058000B0E700BFC3689A6842F001029A60002099
:10059000704700BFC3689A6822F001029A60002089
:1005A000704700BF00B583B000230193019A0E4B42
:1005B00042F020020192019A61F38A120192C1680D
:1005C000019A0A610A69019203E00A690192013BFA
:1005D00002D0019A9206F8D40320FFF73BFE0020D8
:1005E00003B05DF804FB00BF400D030000B583B00D
:1005F00000230193019A0C4B42F010020192C16852
:10060000019A0A610A69019203E00A690192013BB9
:1006100002D0019AD206F8D40320FFF71BFE002077
:1006200003B05DF804FB00BF400D0300C26808B5CD
:10063000D36801296FF35D736FF39E7308D009B916
:1006400043F08043D3603220FFF716FE002008BD40
:1006500043F00053F6E700BFC368586900F001009B
:10066000704700BFC368586900F0010080F00100C6
:10067000704700BFC368586900F00100704700BFB1
:10068000C3685A6998691040704700BFC3685868CA
:10069000704700BF03691A6861F301021A6070476E
:1006A00010B4C2680D4C4FF0FF31002393615161CB
:1006B000516051619461C07891695DF8044B984232
:1006C00008BF102343F0804343F4701343F4605396
:1006D00043F00C030B430020936170470008008037
:1006E000F8B50446D0F80C012269002101600B46E0
:1006F000116863F3CC211160E17A012949D01021FE
:100700002046FFF74FFF2046FFF770FF25690022C4
:100710004FF0FF332A616A61AB61EA6163783BB3F2
:1007200017462146FF268B6918680028ACBF0020B9
:100730004FF0904018601F619E60637801329342D1
:1007400001F10401EFD89BB1002217462146FF2694
:100750004B6D18680028ACBF00204FF09040186027
:100760001F619E6063780132934201F10401EFD86A
:100770002B6943F480732B61E378012B04D1174B71
:10078000402262F359432B632046FFF789FF002084
:10079000F8BD1768E068A021802561F30F034FF4CE
:1007A000001165F31F4347F0030765F30F014FF492
:1007B0009076176045628162C0F8043166F30F03DA
:1007C000C0F220034FF4A072C0F8083162F30F03A7
:1007D0006FF31F43C0F80C3191E700BF0301010024
:1007E00003699B68C3F34103022B07D0032B03D09B
:1007F000012B01D003207047022070470120704771
:100800000369826998681168C0F34100022806BF35
:10081000032060F30A016FF30A0111605A6842F481
:1008200080725A600020704770B44B78012B4FF0F3
:10083000000220D00B7800EB8304012505FA03F3B6
:10084000646D63F31F4223681D040DD48E68CD7858
:10085000C98866F30A0365F3934361F3995343F040
:10086000805343F4004323600369D9690A4300209D
:10087000DA6170BC70470C7800EB8405A34063F329
:100880000F02AC69DFE700BF30B44A780023012AC9
:100890001C4613D00A7800EB8201012505FA02F20A
:1008A000496D62F31F4402696FF3CF330B60D36964
:1008B00023EA0404D461002030BC7047097800EBBF
:1008C00081058A4062F30F04A969ECE7F0B44C7823
:1008D0000B784D69012C00EB83033AD05C6D2368E3
:1008E0002269EDB18E683544013DB5FBF6F5C5F3DF
:1008F000090765F3DC4206FB07F666F31202226184
:10090000C278012A16D0CA78012A1CD00A7800EBD6
:10091000820043F00443426D13600020F0BC704736
:100920008D68012665F3120266F3DC422261C2780B
:10093000012AE8D10C780A6900EB8404646D6261D5
:10094000CA78012AE2D14A79002A4DD043F00053F7
:10095000DCE79E6933683269002D40D08C68CF781F
:1009600005EB040C0CF1FF3C65F31202BCFBF4F444
:1009700064F3DC42012F08BF67F35E723261C27814
:10098000012A3BD0CA78012A31D055B102690C78CE
:10099000566B012707FA04F434435463CA78012ADA
:1009A00025D00A7800EB820243F004439269136079
:1009B000CB78012BB1D1C378CA680978002BACD1B0
:1009C000ADB200EB81000335AD10D0F8D000A4D05B
:1009D000013352F8041B01609D42F9D19DE765F394
:1009E000120264F3DC42C9E743F080538EE70269E8
:1009F0009268D20509D443F00053D2E70C780A6913
:100A000000EB8404A4696261C8E743F08053C8E73F
:100A1000F0B44A78012A82B02AD00B784C698E68EB
:100A200000EB83035A6D1368156900959DF800501B
:100A3000DCB19DF802404E61012767F3C40466F300
:100A400006058DF800508DF80240009C1461C278B4
:100A5000012A3CD00A7800EB820043F00443426D47
:100A60001360002002B0F0BC70479DF80240E3E73D
:100A700084694D69236826690096002D2ED08A6806
:100A800095423FD99DF800504A6162F306058DF802
:100A900000509DF80220012565F3C4028DF8022064
:100AA000009A2261C278012A25D043F004432360D2
:100AB000C378002BD5D14B69002BD2D003690A78BB
:100AC000596B012000FA02F20A435A63C9E70C7815
:100AD0000A6900EB8404646D6261BBE79DF80070F5
:100AE0009DF8026065F3060762F3C4068DF8007096
:100AF0008DF80260D4E70D780A6900EB8505AD69D1
:100B00006A61D2E79DF8002065F306028DF80020A7
:100B1000BFE700BF4B78012B0B7800EB830006D0BA
:100B2000426D136843F4001313600020704782691C
:100B30001368002BF6DA43F0804343F4001313608C
:100B4000002070474B78012B0B78C97800EB8300AD
:100B5000A1F102010CBF8269426D136801296FF394
:100B6000555398BF43F0805313600020704700BF77
:100B700003699A69D8691040000C704700EB810145
:100B800002694B6D9B68506918407047036998690A
:100B9000DB69184080B2704710B4012383B04FF076
:100BA000000263F3C402C024002318210093436DA4
:100BB0008DF802208DF803408DF80010009A1A611C
:100BC000C278012A06D100F5B96058614FF0802241
:100BD00019681A6003B05DF8044B7047D0F81431FF
:100BE00010B504461BB103699A68D20700D410BD42
:100BF000827A42B1D0F80C21D0F80C116FF3410287
:100C00006FF300020A605A6842F001025A60052040
:100C1000FFF732FB23695A6822F001025A6010BDC7
:100C2000837A1BB103699B68DB0700D47047D0F857
:100C30000C31D0F80C216FF341036FF30003136004
:100C4000704700BF38B543780122054680F812216D
:100C500063B103460022FF219C69A1605C6DA16025
:100C60006C780132944203F10403F5D82B69002219
:100C70004FF0FF311A6128465A61DA619961FFF736
:100C8000B5FC28461021BDE83840FFF78BBC00BFFB
:100C90004B78012B0B7800EB83000BD0436D1B6866
:100CA0009A0211D413F4003F0CBF4FF440504FF49C
:100CB0000050704783691B68990208D413F4003F01
:100CC0000CBF3020202070474FF480507047102018
:100CD000704700BFF0B44D78012D0C4615D009784F
:100CE00000EB8101B2F5805F4D6D2B681E4619D077
:100CF000B2F5005F13D0B2F5405F26D012B962F3AF
:100D0000CF3633462B60F0BC70470F7800EB870777
:100D1000102ABD692B681E461ED0202A05D143F03B
:100D20000063EFE743F40013ECE7302AE6D19902C1
:100D30000DD500216171BA69E07813680238012885
:100D400061F3555315D91360DDE79A0207D443F0D8
:100D5000044343F40043D5E7F0BCFFF7DBBE0020BB
:100D600060714A6DE17813680239012960F35553C7
:100D7000E9D843F08053E6E770B50446FFF7F0FA90
:100D800063780126002284F8126184F813217BB372
:100D900011462346402583F81821A3F81E2183F825
:100DA000196183F81B11C3F82051C3F82411C3F84B
:100DB0002C1160780132904203F12803EBD8B8B1CE
:100DC000002211462346402583F87023A3F876239A
:100DD00083F8711383F87313C3F87853C3F87C1343
:100DE000C3F8841360780132904203F12803EBD8F2
:100DF0002046FFF7CFFB2046FFF74AFB20460021A5
:100E0000FFF714FC2046FFF76BFC2046BDE870405E
:100E1000FFF7B8BB70B50C0613D401EB8105ED00EC
:100E200005F55C75441900264155A260E3706670B3
:100E3000022B04BF002323712146FFF7F5FC00209D
:100E400070BD01F07F0101EB8105ED0005F58C75AA
:100E5000441901264155A260E370E1806670E7E71E
:100E6000CAB208B513060DD401EB810300EBC3032E
:100E700003F55C73D20919705A701946FFF704FD27
:100E8000002008BD01F07F0101EB810300EBC303EB
:100E900003F58C73EEE700BF70B501F07F0404EB3F
:100EA0008405ED0005F55C7541190026CA604B61AB
:100EB0008E614E704455C378012B08BF0A611CB186
:100EC000FFF704FD002070BDFFF7A2FD002070BDFC
:100ED000F8B501F07F0404EB8405ED0005F58C7591
:100EE00041194FF0010E002781F801E04455CA6016
:100EF0000A614B618F611CB1FFF7E8FC0020F8BD6F
:100F0000FFF786FD0020F8BDCAB2130610B50FD456
:100F100001EB810300EBC30303F55C73D2090124E9
:100F200019705A709C701946FFF7F4FD002010BD2F
:100F300001F07F0101EB810300EBC30303F58C7328
:100F4000ECE700BFCAB2130610B50FD401EB810362
:100F500000EBC30303F55C73D209002419705A70C7
:100F60009C701946FFF7EEFD204610BD01F07F0191
:100F700001EB810300EBC30303F58C73ECE700BFC7
:100F800008B50B0603D4FFF731FB002008BD01F0C4
:100F90007F01FFF707FB002008BD00BF03690022A7
:100FA000186861F30A1202431A60704703695A68AD
:100FB0006FF341025A600320FFF75EB903695A6874
:100FC00042F002025A600320FFF756B90B0607D41D
:100FD00001EB810100EBC10101F55C71FFF758BE27
:100FE00001F07F0101EB810100EBC10101F58C7182
:100FF000FFF74EBE0B0607D401EB810100EBC101E8
:1010000001F55C71FFF766BE01F07F0101EB810124
:1010100000EBC10101F58C71FFF75CBE2DE9F04FCB
:1010200083B00446FFF71EFB18B9002003B0BDE8EB
:10103000F08F2046FFF724FB06460028F5D0C0F3CA
:10104000C040002840F09680750329D4B10702D52E
:10105000E36802225A61002EC0F29E81320500F13F
:101060007681370700F16981F50600F14081F104CE
:1010700000F10481B20400F1E880F30200F1DA80AB
:10108000B70200F1CC80750000F1BE807107CDD5AC
:10109000E3685D686A0700F102825D600120C5E7D0
:1010A0002046FFF773FD8046002861D0254627467D
:1010B0004FF0000A019629E0720702D5BB690426A9
:1010C0009E60330702D5BB6908269E60F00602D5F4
:1010D000BB6910269E60B10602D5BB6920269E60C2
:1010E000720602D5BB6940269E60B30702D5BB6974
:1010F00002269E60300600F184815FEA58080AF1FA
:10110000010A05F1280507F1040730D018F0010F96
:10111000F3D023695FFA8AF919695E6B04EB8902DF
:1011200026FA09F69269F601F6B292680E43164065
:10113000F107C1D5964E596B3268012606FA0AF0BE
:1011400021EA00015963BB6952689E602046494606
:101150009047E378B342AFD1BAF1000FACD194F825
:101160001131042BA8D12046FFF716FDA4E7019EFC
:1011700001206BE72046FFF7FBFC0546002841D025
:101180002746A3464FF00008A14607E06D0808F186
:10119000010807F104070BF1280B32D0EC07F5D555
:1011A0005FFA88FA51464846FFF7E8FC0446E00734
:1011B00012D57B6D01249C6099F80320A24200F0B7
:1011C00082817348036851461B684846984799F8DE
:1011D0000330012B00F06A81A10702D57B6D022448
:1011E0009C60620702D57B6D04249C602307CDD5EB
:1011F00067490B6848469B6898477B6D08229A6050
:10120000C4E74C4601201FE7614B1B6820465B6A20
:101210009847E3684FF080425A61012036E75C4B03
:101220001B6820461B6A9847E3684FF400125A6116
:10123000012028E7564B1B682046DB699847E36886
:101240004FF480125A6101201AE72046FFF7D8FABE
:10125000E3682046DD68FFF7C3FA032800F0C88082
:10126000012140220523A170A28063F38D25E3684C
:101270004FF40052DD6001205A61FEE623695A688E
:10128000002722F001025A6039462046FFF78AF90A
:10129000637863B123463A46FF2099698860596DA7
:1012A0008860617801328A4203F10403F5D3012595
:1012B000236965F30F070F214FF0FF302F2265F3ED
:1012C0001F479861DF6159611A611A686FF30A124A
:1012D0001A602046FFF760FC2D4AE36812684FF45D
:1012E000805112695961204690472846C2E6E3685A
:1012F0009A6922F010029A611D6A05F00F0202EB52
:101300008202C5F3434104EBC207022907F55C776B
:101310005DD006290BD10822204604F5B961FFF7FC
:101320000BF8BA69E368C5F30A152A44BA619A69E9
:1013300042F010029A61012099E6154B1B68204685
:10134000DB689847E36808225A6101208CE6104B5D
:101350001B6820465B6998472269E36891684FF4EF
:1013600000625A61A37A83B1CB070ED5D4F80C3151
:10137000084A196841F001011960196841F0030138
:101380001960136943F006031361012069E600BF89
:101390009000002000ED00E0A37A43B1D4F80C31B6
:1013A000D4F80C216FF341036FF30003136023693A
:1013B000494A5968126821F0010159602046936931
:1013C0009847E3684FF000425A61012046E6C5F3B2
:1013D0000A15002DABD0F9682A462046FEF7ACFF6F
:1013E000F968BA69E36829442A44F960BA619EE75A
:1013F00000214FF400720923A170A28063F38D25B0
:1014000035E7D5F82C21D5F83001B969D5F8206138
:10141000D1F818C0131AB34234BF9B46B3460BF140
:10142000030B1FFA8CFCBCEB9B0F33D9824231D9E2
:1014300082B3D5F8241108E0B8698669B6B2B3451D
:101440002BD252B3D5F82061D31A9E4228BF1E4634
:10145000B3B24A462046FEF75BFFD5F83031D5F8E7
:101460002411D5F82C21334406F1030B3144934267
:101470004FEA9B0BC5F82411C5F83031DCD3236942
:1014800095F81821596B012000FA02F221EA0202B4
:101490005A63B96980268E602FE60146FAE70E4B43
:1014A0001B6820469B6A9847E368F6E5B8F1000F91
:1014B0007FF492AE99F81131052B7FF48DAE48463A
:1014C000FFF76AFB88E61A69DBF87833C2F3120289
:1014D0009B1ACBF8883374E69000002010B5074CB7
:1014E0002068FF2807D0064B064A9B681268064909
:1014F0009847FF232360002010BD00BF000000209C
:101500007C000020FC0A0020E0F4002043230B8034
:10151000004870470400002070B51F4C6368052B1D
:1015200003F1010202D06260002070BD227A002324
:10153000012A6360F8D0E1682569B1F5006F23D016
:10154000A94226D015D88AB26D1A6561D0F8EC355B
:10155000B3F83930AB4211D21944ED1AE16065613C
:101560000E4901250A4481212572FFF7B1FC0020B4
:1015700070BDC1F5006565618AB2E7E729440026C0
:10158000E160ABB26661EBE7E36015B11A4619465C
:10159000DAE700232372C7E7FC0A0020E8F4002002
:1015A00001EB810138B500EBC101094D094BB1F8E0
:1015B00088131B69044628469847D4F8EC352A4618
:1015C000B3F8403020460121FFF766FC002038BD0B
:1015D000A0F400207C00002070B50B7813F06004AC
:1015E0000D46064617D0202C10D1CC88002C3AD0BE
:1015F0001B0626D4234B244A4D7815601C602246D6
:101600002249002400F066FB204670BD00F0C4FBB8
:101610000224204670BD4B780A2B1FD00B2B0BD019
:10162000062BF6D14B881B0A212B26D022463046AA
:10163000174900F037FBECE78B78DBB9114B9C6165
:10164000E7E7144B48789B68104922469847304694
:10165000EA880E4900F026FB0024DAE70E49012251
:1016600000F020FBD5E70B4B48789B6821462246CB
:101670009847CEE700F090FBCBE7CA883A2A28BF0C
:101680003A22D4E7FC0A002000000020E0F4002009
:10169000160000207C000020140B002010B58121D2
:1016A0000446FFF7DDFB20460121FFF7D9FB82212D
:1016B0002046FFF7D5FB024B5B689847002010BD22
:1016C0007C000020D0F8EC2538B5044681210223A7
:1016D000B2F83920FFF79EFBD4F8EC352046B3F87A
:1016E000402001210223FFF795FB2046822108229A
:1016F0000323FFF78FFB094B094A022100251971CB
:101700005D7113689847D4F8EC35064AB3F8403059
:1017100020460121FFF7C0FB284638BDC00000204D
:101720007C000020A0F4002038B512490B7A012B70
:1017300001D0002038BD4C69CCB1D0F8EC35CA6876
:10174000B3F839309C420CD813190025CB6092B203
:1017500023464D6108490A448121FFF7B9FB002067
:1017600038BD9D18E41A4C61CD6092B2F2E70C725C
:10177000002038BDFC0A0020E8F400200349044A98
:10178000044B0020086010601870704774FD002042
:1017900070FD0020E8FC002000207047F0B481B10B
:1017A000094C0A4F014426460025236810F8012BF6
:1017B000FA540133B3F5006F28BF2B4688423360DB
:1017C000F3D10020F0BC70470C0B0020E8F400209F
:1017D000F0B421B3154C164A23681568013303F0A1
:1017E0007F03AB4223601DD00144124E124F09E02B
:1017F0008842F25413D02368013303F07F03AB42D5
:1018000023600FD010F8012B0D2AF1D197F800C0FA
:10181000F2540CF1010C884287F800C0EBD1002093
:10182000F0BC70470220F0BC704700BF74FD002080
:1018300070FD0020ECFC0020E8FC00202028F0B423
:1018400014D021280FD1154B1A680A701A68120A91
:101850004A705A888A70DA78CA701A790A715A7985
:101860004A719B798B710020F0BC70478F784E785D
:101870000D78CC7891F804C048798A79074B3904FF
:1018800041EA0621294341EA0461587183F804C002
:101890009A7100201960F0BC704700BF74000020EE
:1018A000074B1A6810B4511C064CB1F5006FA054D8
:1018B0002ABF002219601A605DF8044B704700BF10
:1018C0000C0B0020E8F40020DFF878C02DE9F001CF
:1018D0009CF800402CB3184D184E2B6832689A4281
:1018E00023D0174F0024A84601E00D2A0ED0013363
:1018F00003F07F032B60FA5C1F2A04D902550134E0
:10190000D8F80030A4B231689942EED100230355D3
:101910009CF80030013B20468CF80030BDE8F00117
:1019200070472046BDE8F001704700208CF80000A9
:10193000BDE8F001704700BF70FD002074FD00207D
:10194000ECFC0020E8FC0020084B09491A680968F3
:10195000914207D0013202F07F0206491A60885C8A
:1019600000B270474FF6FF70FAE700BF70FD00202D
:1019700074FD0020ECFC002010B5D0F8E4350446DE
:101980001B699847032384F81231002010BD00BF63
:1019900008B50422D0F8E43580F81221DB689847B6
:1019A000002008BD08B5D0F8E035DB6903B19847E1
:1019B000002008BD08B5D0F8E0351B6A9847002024
:1019C00008BD00BF08B5D0F8E0355B6A9847002035
:1019D00008BD00BF08B5D0F8E4355B699847002022
:1019E00008BD00BFD0F8E43510B504469B699847A0
:1019F000D4F8E03520465B6800219847002010BDF0
:101A0000002110B50B4604464022FFF703FA80215F
:101A1000204640220023FFF7FDF90122D4F8E435E7
:101A200084F81221A0785B689847002010BD00BFA1
:101A300010B582B06946044600F08CF99DF800109C
:101A400001F01F03012B18D010D3022B07D0204622
:101A500001F08001FFF758FA002002B010BD2046C7
:101A6000694600F045FB002002B010BD20466946E3
:101A700000F0ACF9002002B010BD2046694600F02D
:101A80001DFB002002B010BD70B5044629B990F8C6
:101A90001131022B0CD0002070BDD0F8E0355B690D
:101AA000002BF8D090F81221032AF4D19847F2E7DE
:101AB000D0F83421D0F820319A4210D9C1780129C8
:101AC000D0F82411C3EB020208BFC918C0F83421B2
:101AD00008BFC0F8241192B200F0F4F8DBE7D0F8A8
:101AE0003851B5FBF3F603FB16565EB9AB4209D885
:101AF000D0F83C319D4205D2324600F0E3F8C4F8FC
:101B00003C61C8E7D4F8E035DB681BB194F81221DA
:101B1000032A03D0204600F005F9BCE72046984789
:101B2000F8E700BF10B5044629B990F81131032B2E
:101B30000CD0002010BDD0F8E0359B69002BF8D008
:101B400090F81221032AF4D19847F2E7D0F88C23B9
:101B5000D0F878339A4212D9C1780129D0F87C1391
:101B6000C3EB020204BFC918C0F87C13C0F88C2371
:101B70009A4228BF1A4692B200F0BCF8D9E7D0F8D2
:101B8000E0351B691BB190F81221032A03D02046CF
:101B900000F0B8F8CDE79847F9E700BF2DE9F0412C
:101BA0000446164698460D46069FFEF7EDFA204677
:101BB0002946C4F8E085C4F8E475C4F8E865FFF781
:101BC000DBF8D4F8E4351B6898472046BDE8F041BF
:101BD000FEF728BB00207047D0F8E03510B504466A
:101BE0001B689847D4F8E4359B689847002010BDDF
:101BF00008B5D0F8E0355B689847002008BD00BF05
:101C000012230B8000487047C000002004230B8083
:101C100000487047D400002010B5044C04480A4620
:101C2000214600F0CBFA204610BD00BF78FD002011
:101C30006C8D010810B5044C04480A46214600F09A
:101C4000BDFA204610BD00BF78FD0020848D01083C
:101C500010B5044C04480A46214600F0AFFA20466D
:101C600010BD00BF78FD0020988D010810B5044C10
:101C700004480A46214600F0A1FA204610BD00BFE4
:101C800078FD0020A88D010810B5044C04480A46D0
:101C9000214600F093FA204610BD00BF78FD0020D9
:101CA000B48D010838B5134602250A46C0F838310C
:101CB000C0F8343180F811510021FFF709F90020F4
:101CC00038BD00BF08B513460A460021FFF700F9EA
:101CD000002008BD38B5134603250A46C0F89033E6
:101CE000C0F88C3380F811510021FFF7D5F800209F
:101CF00038BD00BF08B513460A460021FFF7CCF8EF
:101D0000002008BD10B50021042304460A4680F8CF
:101D100011310B46FFF7DCF82046FEF73DFF0020AF
:101D200010BD00BF10B50021052304460A4680F807
:101D300011310B46FFF7B0F82046FEF72DFF0020CB
:101D400010BD00BF01EB810100EBC100B0F88803BA
:101D5000704700BF90F8C8350B7090F8C9354B70CC
:101D600090F8CB2590F8CA3503EB02234B8090F80E
:101D7000CD2590F8CC3503EB02238B8090F8CF254E
:101D800090F8CE3503EB02239BB20122CB80C0F842
:101D90003C3180F81121704710B591F90030002BCB
:101DA000044609DBCB883BB10021FFF7ADF82046A4
:101DB000BDE81040FEF7F0BE20468021FFF7A4F8F2
:101DC0002046BDE81040FEF7E7BE00BF70B54B7877
:101DD00082B00C460546092B0CD8DFE803F03246EA
:101DE0000B5A0B05710B8712A3881BB9E388002BD4
:101DF00000F08E8028462146FFF7CEFF002002B07B
:101E000070BDA178AA4E01293170F3D890F8123133
:101E1000022B00F09880032BECD1002900F03D81CB
:101E200090F81011012900F03081FFF7E1FE3178C0
:101E300085F810112846FFF7CFFE2846FFF762FF0E
:101E4000DCE790F812310122023B93424FF003018C
:101E5000D0D8D0F81431002B57D1954B9A60284632
:101E600094490122FFF71EFFC8E790F81231023BA8
:101E7000012BBFD86388012BC0D1D0F8E0350022F8
:101E80009B68C0F81421214698472846FFF73AFF7F
:101E9000B4E76388012B00F0F180022BAED1A38858
:101EA00013F0FF0FAAD101691B0A4A68013B1046D3
:101EB000042B00F29480DFE803F0979C8EA6A1002B
:101EC0006288130A013B062B94D801A151F823F034
:101ED000B51F0008771F0008651F0008F51D0008E2
:101EE000F51D0008F51D0008F51D0008E288012A0F
:101EF00080D190F81231022B21D0032B7FF47AAFDE
:101F000000F58871FFF7CEFE78E7694B9960A6E788
:101F100090F81231A678032B06F07F063FF46AAFE3
:101F200080F813613146FFF739F82846FFF7EAFEDB
:101F3000002E00F0AE80022385F812315EE75E4984
:101F4000FFF7B0FE5AE7002900F09F80012103232C
:101F500080F8101180F81231FFF73EFE2846FFF797
:101F6000D1FE4BE7D2B2052A3FF644AFDFE802F0DC
:101F70007D746B625950D0F8E03580789B6A0DF122
:101F800006019847022343700146C5F8EC05BDF8E9
:101F90000630002B3FF432AFE288002A3FF42EAF28
:101FA000934228BF13461A462846ADF80630FFF77D
:101FB00079FE23E7D0F8E83580781B680DF106013B
:101FC0009847E288402A014603D095F81231012B48
:101FD000DDD10823E1E7032363F3061002464A60DC
:101FE0002846FFF78FFE09E7012363F30610024638
:101FF000F5E7022363F306100246F0E7052363F3D7
:1020000006100246EBE7042363F306100246E6E7F8
:10201000D0F8E83580789B690DF1060198470146B4
:10202000B5E7D0F8E83580785B690DF1060198478F
:102030000146ACE7D0F8E83580781B690DF1060160
:1020400098470146A3E7D0F8E8358078DB680DF1C2
:102050000601984701469AE7D0F8E83580789B68F2
:102060000DF106019847014691E7D0F8E8358078F0
:102070005B680DF106019847014688E7D0F8E02536
:10208000C0F814312146936898472846FFF73AFE76
:10209000B4E6012385F81231B0E6022380F810116E
:1020A00080F81231FFF7A4FD2846FFF72BFEA5E6C6
:1020B000180B0020200B00201C0B002038B590F8D6
:1020C0001231032B04460D4602D10B79012B03D9A3
:1020D000FFF762FE002038BDD0F8E0359B689847D6
:1020E000EB88002BF6D12046FFF70CFEF2E700BF8D
:1020F00070B54B788A88012B0C460546D6B224D0A1
:1021000019D3032B15D190F81231022B17D0032BC2
:102110003ED14B8823B9730602D03146FEF7F4FE58
:10212000D5F8E03521469B68284698472846FFF7B2
:10213000E9FD002070BD90F81231022B14D1720617
:10214000F7D03146FEF7E0FEF3E790F81231022BAC
:10215000F5D0032B1CD14B88002BEAD17106E5D0BA
:102160003146FEF7EFFEDBE7032B11D1130613D444
:1021700006EB860600EBC60696F87233B3B90D4B34
:102180000022DA6028460C490222FFF78BFDD0E7D7
:10219000FFF702FE002070BD06F07F0606EB860604
:1021A00000EBC60696F81A31002BE8D0014B01224D
:1021B000DA60E7E7180B0020240B002030B4F0B100
:1021C0000378F3B10446002314F8015F0133DBB256
:1021D000002DF9D15B000233DCB2032513800C70B3
:1021E0004D7002785AB1022300255C1CE4B2CA5437
:1021F0000D5510F8012F0233DBB2002AF5D130BCA7
:10220000704702242346E8E7014B01221A70704709
:102210006CFD0020014B01221A7070476CFD0020FC
:10222000014B02221A7070476CFD0020014B012205
:102230001A7070476CFD0020014B01221A70704724
:102240006CFD0020014B01221A7070476CFD0020CC
:10225000014B01221A7070476CFD002030B583B02D
:102260000124064D064B009321460648064A074BBB
:102270002C70FFF793FC03B030BD00BF6CFD002055
:1022800000010020ACFD0020E400002048000020F8
:10229000014B1878704700BF6CFD002038B51A4B11
:1022A0001B78022B04460D4601D0002038BD007873
:1022B00028B1FFF7F5FA14F8010F0028F9D1012D24
:1022C0000CD0022D12D0032D18D0042D01D00120E6
:1022D00038BD0D20FFF7E4FA012038BD0A20FFF7D2
:1022E000DFFA0D20FFF7DCFA284638BD0D20FFF796
:1022F000D7FA0A20FFF7D4FA012038BD0A20FFF7E9
:10230000CFFA012038BD00BF6CFD002038B5074B67
:102310001C78022C054601D0002038BDFFF7D4FA06
:1023200008B1204638BD2870012038BD6CFD002062
:10233000B0F5C06F10B504460DD020F48073B3F52E
:10234000806F08D020F48063B3F5407F03D0054848
:1023500073210BF039FD44F0BF60034B40F40030B3
:10236000D86010BDC48D010800ED00E0F8B5C37859
:10237000012B044603D9244887210BF025FD6378FF
:102380000F2B3BD8A3780F2B33D8E3785BB9237896
:102390001E4A5909203103F01F03012000FA03F3FC
:1023A00042F82130F8BD1A4B6778DA68A5782378AF
:1023B0001649D243C2F30222C2F10400C0B20F2672
:1023C00007FA00F046FA02F2C0B22A40024303F1D3
:1023D000604303F561431201D2B283F800232378EE
:1023E000012003F01F025B0900FA02F241F82320EA
:1023F000F8BD054889210BF0E7FCC6E702488821B3
:102400000BF0E2FCBEE700BFC48D010800E100E074
:1024100000ED00E0B0F1005F38B504460D4606D08F
:10242000B0F1006F03D00948B1210BF0CDFC084B8F
:102430009D4203D90548B2210BF0C6FC25F060414E
:1024400021F07F01034B2143996038BDC48D010801
:10245000FEFF0F0000ED00E0102838B504460D46E1
:1024600007D0042805D0022803D00B48C4210BF064
:10247000ABFC012D08D90848C5210BF0A5FC074B82
:102480001A6914431C6138BD002DF8D1034B1A6939
:1024900022EA04041C6138BDC48D010800ED00E08F
:1024A000042808B50BD0053003D00848DC210BF018
:1024B0008BFC074B1A6822F004021A6008BD044B1B
:1024C0001A6842F004021A6008BD00BFC48D0108FA
:1024D00010E000E008B54FF48070012104F04EFEDA
:1024E0004FF480700021BDE8084004F047BE00BFF3
:1024F000414B98422DE9F04105460C460BD003F5BF
:102500008073984207D003F58073984203D03B480C
:10251000E9210BF059FC236833F040715CD1237939
:10252000012B03D93548EB210BF04EFC6379012BCD
:1025300003D93248EC210BF047FCA36833F040523A
:102540004FD1E36833F0407123F080720ED022F057
:102550000072B2F1806F09D0B2F1006F06D0B2F113
:10256000406F03D02548EE210BF02EFC236933F495
:10257000006203D02148EF210BF026FC237D013BB4
:102580000F2B03D91D48F0210BF01EFC6A6821684F
:1025900094F80480D4F80CC02769A6686079184BB9
:1025A00022F0407222F480720A4342EA08226A60F2
:1025B000A9684CEA070232430B40134343EA400345
:1025C000AB60237DEA6A013BDBB222F4700242EA8F
:1025D0000353EB62BDE8F0810848EA210BF0F4FBFD
:1025E0009DE7ED2105480BF0EFFBE36833F0407108
:1025F00023F08072ABD1B9E700200140F08D0108D3
:10260000FDF7FFC0002301220275036003714371CF
:102610008360C360036170470368022B70B5044692
:102620003AD8636833F440312BD0264840F2531136
:102630000BF0CAFBA16831F440403DD1E36833F4AC
:10264000407023F4807211D022F40072B2F5806FD2
:102650000BD0B2F5006F08D0B2F5406F05D0194825
:1026600040F255110BF0B0FBE368A1681648174A19
:10267000456850CC34432A4021430A431343436006
:1026800070BDA16831F4404216D1E36833F4407064
:1026900023F48072D8D1E8E723F01002511F0229F9
:1026A000BFD9092ABDD0113B012BBAD905484FF437
:1026B000A9710BF089FBB4E702484FF4AA710BF043
:1026C00083FBE2E7F08D010800230140E030FCFFCE
:1026D0000023036043608360C360704738B5124BCA
:1026E000984204460D460CD003F58073984208D0FA
:1026F00003F58073984204D00C4840F28B110BF024
:1027000063FB012D09D909484FF4C6710BF05CFB3E
:10271000A36843F00103A36038BD002DF8D1A3687E
:1027200023F00103A36038BD00200140F08D0108B3
:1027300038B5184B984204460D460CD003F580730B
:10274000984208D003F58073984204D012484FF4A1
:10275000E3710BF039FB114B25F400029A420AD0C9
:1027600025F40073B3F5000F05D0B5F5400F02D086
:1027700035F4800307D1636823F4400323F4007326
:102780001D43656038BD044840F2C7110BF01CFBC7
:10279000F1E700BF00200140F08D01080002400079
:1027A000134B984270B504460D4616460CD003F5FF
:1027B0008073984208D003F58073984204D00D4886
:1027C00040F2E3110BF000FBB5F5805F0AD2B6F5DD
:1027D000805F04D3074840F2E5110BF0F5FA65621B
:1027E000A66270BD03484FF4F2710BF0EDFAEEE70C
:1027F00000200140F08D010838B50F4B9842044687
:102800000D460CD003F58073984208D003F5807311
:10281000984204D009484FF403710BF0D5FA122DF9
:1028200004D9064840F20D210BF0CEFA636823F07C
:102830001F031D43656038BD00200140F08D010875
:10284000012808B50AD909484FF413710BF0BCFAF6
:10285000074B5A6842F400025A6008BD0028F7D1BD
:10286000034B5A6822F400025A6008BDF08D01083B
:1028700000230140012808B50AD9094840F2622125
:102880000BF0A2FA074B5A6842F480025A6008BD66
:102890000028F7D1034B5A6822F480025A6008BD21
:1028A000F08D010800230140DFF8F8C060452DE9F4
:1028B000F04104460D4616461F460BD0374B984252
:1028C00008D003F58073984204D035484FF4327134
:1028D0000BF07AFA122D5BD806F1FF385FFA88F315
:1028E0000F2B4FD8072F47D8092D1CD9A5F10A0364
:1028F00003EB4303E268072199409F4022EA01036A
:102900003B43062EE3601AD90C2E27D90D3E06EB69
:102910008606E36A1F22B240B54023EA02062E4330
:10292000E662BDE8F08105EB450322690721994085
:102930009F4022EA01033B43062E2361E4D808EBC3
:102940008808636B1F2202FA08F205FA08F823EAE6
:10295000020545EA08056563BDE8F081073E06EB20
:102960008606236B1F22B24005FA06F623EA02050B
:1029700035432563BDE8F081094840F2CB210BF0D7
:1029800023FAB1E7064840F2CA210BF01DFAA9E785
:10299000034840F2C9210BF017FA9DE700210140DE
:1029A000F08D0108002001400B4B984210B5044601
:1029B0000CD003F58073984208D003F580739842D9
:1029C00004D0064840F23F310BF0FEF9A36843F013
:1029D0008043A36010BD00BF00200140F08D0108BE
:1029E0000A4B984210B504460CD003F58073984208
:1029F00008D003F58073984204D0054840F24E3168
:102A00000BF0E2F9A068C0F3805010BD0020014037
:102A1000F08D010838B5124B984204460D460CD093
:102A200003F58073984208D003F58073984204D070
:102A30000C4840F26B310BF0C7F9012D09D9094858
:102A40004FF45B710BF0C0F9A36843F48063A3609B
:102A500038BD002DF8D1A36823F48063A36038BD8E
:102A600000200140F08D010838B5124B9842044611
:102A70000D460CD003F58073984208D003F580739F
:102A8000984204D00C484FF461710BF09DF9012D70
:102A900009D9094840F285310BF096F9A36843F053
:102AA0000203A36038BD002DF8D1A36823F0020310
:102AB000A36038BD00200140F08D010838B5114BEE
:102AC000984204460D460CD003F58073984208D016
:102AD00003F58073984204D00B4840F2A1310BF00B
:102AE00073F9013DEBB2072B04D9074840F2A2313C
:102AF0000BF06AF9636823F4604343EA4535656087
:102B000038BD00BF00200140F08D010838B5124BE0
:102B1000984204460D460CD003F58073984208D0C5
:102B200003F58073984204D00C4840F2BE310BF09C
:102B30004BF9012D09D9094840F2BF310BF044F996
:102B4000636843F40063636038BD002DF8D16368A7
:102B500023F40063636038BD00200140F08D01085C
:102B60000A4B984210B504460CD003F58073984286
:102B700008D003F58073984204D0054840F2D5315F
:102B80000BF022F9E06C80B210BD00BF00200140C4
:102B9000F08D0108014B1868704700BF0823014001
:102BA00038B5124B984204460D460CD003F580739D
:102BB000984208D003F58073984204D00C4840F244
:102BC0001B410BF001F9012D09D9094840F21C41C4
:102BD0000BF0FAF8A36843F48073A36038BD002DAE
:102BE000F8D1A36823F48073A36038BD00200140AE
:102BF000F08D010838B5124B984204460D460CD0B2
:102C000003F58073984208D003F58073984204D08E
:102C10000C4840F233410BF0D7F8012D09D909488F
:102C200040F234410BF0D0F8A36843F40073A36082
:102C300038BD002DF8D1A36823F40073A36038BD1C
:102C400000200140F08D0108012808B50AD9094883
:102C500040F24E410BF0B8F8074B5A6842F400526C
:102C60005A6008BD0028F7D1034B5A6822F400527D
:102C70005A6008BDF08D010800230140DFF8B4C0A0
:102C80006045F8B504460D4616461F460BD0274B47
:102C9000984208D003F58073984204D0244840F24B
:102CA000A6410BF091F8122D39D8731E032B30D8A2
:102CB000072F28D8092D19D805EB450322690721CC
:102CC00099409F4022EA01033B432361A36B0236F4
:102CD000C3F30152B61AF6B206EB86061F22B240C3
:102CE000B54023EA02032B43A363F8BDA5F10A0311
:102CF00003EB4303E268072199409F4022EA010366
:102D00003B43E360E2E70A4840F2A9410BF05CF87C
:102D1000D0E707484FF495610BF056F8C8E7044830
:102D200040F2A7410BF050F8BFE700BF002101407F
:102D3000F08D01080020014038B5114B984204463F
:102D40000D460CD003F58073984208D003F58073CC
:102D5000984204D00B4840F2E6410BF035F8013DB3
:102D6000EBB2032B04D9074840F2E7410BF02CF8F3
:102D7000A36B23F4401343EA0555A56338BD00BF98
:102D800000200140F08D010870B5194B044682B057
:102D900000209C420D46164601900CD003F580732E
:102DA0009C4208D003F580739C4204D011484FF434
:102DB000A1610BF009F805F0F703142B08D0182DCA
:102DC00006D0202D04D00B4840F209510AF0FCFF38
:102DD000B6F5805F04D3074840F20A510AF0F4FFC9
:102DE0000194019B1D440195019B1E6002B070BDC2
:102DF00000200140F08D010838B5144B984204467C
:102E00000D460CD003F58073984208D003F580730B
:102E1000984204D00E4840F22E510AF0D5FF35F406
:102E200040330DD0B3F5802F0AD0B3F5002F07D073
:102E3000B3F5402F04D0064840F22F510AF0C4FFEA
:102E4000A36823F470231D43A56038BD0020014012
:102E5000F08D010838B5104B984204460D460CD051
:102E600003F58073984208D003F58073984204D02C
:102E70000A484FF4AA610AF0A7FF35F4401304D0C2
:102E8000064840F251510AF09FFFA36823F4401313
:102E90001D43A56038BD00BF00200140F08D010832
:102EA0000B4B984210B504460CD003F58073984242
:102EB00008D003F58073984204D0064840F264516C
:102EC0000AF082FFA36843F48003A36010BD00BF33
:102ED00000200140F08D01080A4B984210B50446CD
:102EE0000CD003F58073984208D003F580739842A4
:102EF00004D0054840F272510AF066FFA068C0F3A2
:102F0000805010BD00200140F08D010838B5124BF3
:102F1000984204460D460CD003F58073984208D0C1
:102F200003F58073984204D00C4840F28E510AF0A9
:102F30004BFF012D09D9094840F28F510AF044FF97
:102F4000636843F48063636038BD002DF8D1636823
:102F500023F48063636038BD00200140F08D0108D8
:102F600038B5124B984204460D460CD003F58073D9
:102F7000984208D003F58073984204D00C484FF46F
:102F8000B5610AF021FF012D09D9094840F2A95184
:102F90000AF01AFF636843F48053636038BD002D64
:102FA000F8D1636823F48053636038BD002001408A
:102FB000F08D010830B5164B83B0002298420446CC
:102FC0000D4601920CD003F58073984208D003F5AA
:102FD0008073984204D00F4840F2C6510AF0F4FEC4
:102FE00005F0F703142B08D0182D06D0202D04D09F
:102FF000084840F2C7510AF0E7FE0194019B2833CC
:103000001D440195019B186880B203B030BD00BF1C
:1030100000200140F08D01081D4B984270B5044618
:103020000D4616460CD003F58073984208D003F580
:103030008073984204D0174840F231610AF0C4FE10
:10304000012E04D9134840F232610AF0BDFE40F26D
:1030500005239D420FD0B5F5837F0CD040F2074386
:103060009D4208D042F21A039D4204D0094840F222
:1030700033610AF0A9FE0123EDB203FA05F5636896
:103080001EB923EA0505656070BD1D43656070BD0E
:1030900000200140F08D010838B5144B98420546D8
:1030A0000C460CD003F58073984208D003F580736A
:1030B000984204D00E4840F256610AF085FE631E25
:1030C000012B0CD9042C0AD0082C08D0102C06D0C7
:1030D000202C04D0064840F257610AF075FE2B6898
:1030E0001C420CBF0020012038BD00BF0020014061
:1030F000F08D010838B50F4B984204460D460CD0B0
:1031000003F58073984208D003F58073984204D089
:1031100009484FF4CF610AF057FE15F0C00F00D1F7
:1031200025B9054840F279610AF04EFEED4325606D
:1031300038BD00BF00200140F08D010838B51A4BA2
:10314000984205460C460CD003F58073984208D08F
:1031500003F58073984204D014484FF4D2610AF00A
:1031600033FE40F205239C420FD0B4F5837F0CD090
:1031700040F207439C4208D042F21A039C4204D01A
:103180000A4840F291610AF01FFE6B68286810EA55
:10319000142007D0E4B2012202FA04F41C420CBF4E
:1031A0000020012038BD00BF00200140F08D010843
:1031B00038B5154B984205460C460CD003F5807384
:1031C000984208D003F58073984204D00F4840F22B
:1031D000B7610AF0F9FD40F205239C420FD0B4F527
:1031E000837F0CD040F207439C4208D042F21A037E
:1031F0009C4204D005484FF4D7610AF0E5FD6FEA20
:1032000014242C6038BD00BF00200140F08D01085F
:10321000014B01229A60704700300240014B186058
:10322000186870470030024039B1054A00EB81014F
:1032300050F8043B13608842FAD1014B186870477C
:1032400000300240014B1868704700BF0030024058
:10325000014B1871704700BF00300240014B1879D4
:10326000704700BF00300240014B1868000C7047E7
:10327000002004E0024B1868C0F30B00704700BF49
:10328000002004E038B530F0070304460D460BD1AA
:1032900050B1012D0ED90B4852210AF095FD0A4B71
:1032A0005A6814435C6038BD064851210AF08CFD11
:1032B000012DF0D8002DF2D1034B5A6822EA040404
:1032C0005C6038BD248E0108002004E038B50F4B47
:1032D000034004460D465BB950B1012D0ED90C4890
:1032E00079210AF071FD0B4B9A6814439C6038BD3C
:1032F000074878210AF068FD012DF0D8002DF2D1A1
:10330000044B9A6822EA04049C6038BD00E21FF96D
:10331000248E0108002004E038B520F4E02323F0D7
:10332000030304460D465BB950B1012D0ED90B487D
:1033300096210AF049FD0A4BDA681443DC6038BD77
:10334000064895210AF040FD012DF0D8002DF2D15C
:10335000034BDA6822EA0404DC6038BD248E0108DD
:10336000002004E0054B00221F211A60DA60596139
:103370009A61DA611A625A62704700BF0000055014
:10338000038823F002039BB22DE9F04104461BB1F0
:103390002E4890210AF018FD638823F010039BB299
:1033A0001BB12A4891210AF00FFDA38823F02003C6
:1033B0009BB21BB1254892210AF006FDE38823F059
:1033C00080039BB21BB1214893210AF0FDFC2389A5
:1033D00023F040039BB21BB11C4894210AF0F4FC7B
:1033E000638923F480724ABBA78927F4406323B121
:1033F000164896210AF0E8FCA789154BB4F802801C
:103400001968B4F800C0A288E6882589608921F48B
:10341000804148EA0C0421F001011443196044EA98
:1034200006011A682943014322F47F62394322F0DE
:10343000020289B20A431A60BDE8F081B3F5007F49
:10344000D2D0024895210AF0BFFCCDE75C8E01087E
:10345000000005500023038043808380C3800381E4
:1034600043818381704700BF30B4418805888488D8
:10347000C288044B41EA054142EA0442196230BC69
:103480005A62704700000550012808B509D909485B
:10349000DE210AF099FC084B1A6842F004021A6017
:1034A00008BD0028F7D1044B1A6822F004021A6004
:1034B00008BD00BF5C8E0108000005508278C1780D
:1034C000064B30B445780478120442EA05222243C0
:1034D00042EA01629A6130BC704700BF00000550AB
:1034E000012808B50AD909484FF482710AF06CFC2A
:1034F000074B1A6842F008021A6008BD0028F7D18D
:10350000034B1A6822F008021A6008BD5C8E01089D
:1035100000000550012808B50AD909484FF49571F3
:103520000AF052FC074B1A6842F480421A6008BD48
:103530000028F7D1034B1A6822F480421A6008BDB4
:103540005C8E010800000550012808B50AD9094819
:1035500040F241110AF038FC074B1A6842F00102B0
:103560001A6008BD0028F7D1034B1A6822F0010247
:103570001A6008BD5C8E010800000550014B986A76
:10358000704700BF0000055038B520F01F03044607
:103590000D4663B958B1012D10D90D4840F279118B
:1035A0000AF012FC0B4BDA681443DC6038BD0848A3
:1035B0004FF4BC710AF008FC012DEED8002DF1D1BA
:1035C000044BE443DA68A4B21440DC6038BD00BFA9
:1035D0005C8E01080000055000F55F43FF339BB28D
:1035E000012B10B5044623D942F2040398422BD094
:1035F000431E012B21D904281FD008281DD01028D4
:103600001BD000F56F43FF339BB2012B1FD941F252
:10361000040398421BD041F20803984217D041F2AC
:103620001003984213D00B484FF4D0710AF0CCFB32
:10363000230B012B0BD0022B06D0074B1B69234217
:103640000CBF0020012010BD034B5B68F7E7024B65
:103650009B68F4E75C8E01080000055020F01F0312
:1036600010B5044603B920B903484FF4E6710AF0D7
:10367000ABFB024B5C6110BD5C8E01080000055085
:10368000431E012B10B504460AD9042808D0082887
:1036900006D0102804D0064840F2E5110AF094FB49
:1036A000044B1B691C420CBF0020012010BD00BF51
:1036B0005C8E010800000550014B5861704700BF47
:1036C0000000055038B5684B9842044655D0183371
:1036D000984262D01833984268D0183398426ED01E
:1036E0001833984239D01833984271D01833984221
:1036F00072D01833984200F0858003F556739842D3
:1037000000F08980183398426AD01833984200F04C
:1037100085801833984200F093801833984200F067
:1037200098801833984200F098801833984200F03F
:103730009880183398427AD0BF214C480AF044FB55
:103740002168002321F001012122216023606360B0
:10375000A360E3602361626138BD0568444A45495E
:1037600025F0010500232120256023606360A3600C
:10377000E36023616061D16038BD05683C4A25F093
:103780000105002321203D21256023606360A360A3
:10379000E36023616061916038BD0568344A25F0BB
:1037A0000105002321204FF47461EDE70568304ADC
:1037B00025F00105002321204FF47411E4E705688A
:1037C0002B4A25F00105002321204FF07461DBE72F
:1037D0000568274A2849C3E70568254A2749BFE7FE
:1037E000274B28491D68002225F0010521244FF4AC
:1037F00074601D601A605A609A60DA601A615C61D8
:10380000886038BD05681A4A25F00105002321208B
:103810004FF03D51A8E705681A4AB0E70568194A14
:1038200025F00105002321204FF47411ACE7056851
:10383000144A25F00105002321204FF03D5193E764
:103840000568104A25F00105002321204FF074611E
:103850009AE705680B4A074982E70568094A06495D
:103860007EE70568074AB9E710600240908E0108BC
:10387000006002403D000020400F002000003D207D
:103880002864024000640240844B98422DE9F047CE
:1038900080460C4632D0183398422FD018339842C5
:1038A0002CD01833984229D01833984226D0183398
:1038B000984223D01833984220D0183398421DD014
:1038C00003F55673984219D01833984216D018331E
:1038D000984213D01833984210D0183398420DD024
:1038E000183398420AD01833984207D018339842B8
:1038F00004D06B484FF49E710AF066FA236833F0E7
:10390000C06340F0B180E36833F0400206D0802B02
:1039100004D063484FF49F710AF056FA23694FF6BA
:10392000FE72013B934200F28580636933F40072BA
:1039300040F08A80A36933F4806240F08F80E369AD
:1039400033F4006207D0B3F5805F04D054484FF4DD
:10395000A1710AF039FA236A33F4005207D0B3F5A3
:10396000804F04D04E4840F243110AF02DFA636AAA
:1039700033F4807204D04A484FF4A2710AF024FA5A
:10398000A36A33F4403240F08380E36A33F00402E8
:1039900004D043484FF4A3710AF016FA236B032BAB
:1039A00042D8D4F834A03AF0C07367D1A06B30F499
:1039B000C00207D03A4840F249110AF005FAA06B5C
:1039C000D4F834A0E36827686669A569E169226ACA
:1039D000D4F82890D8F800C01F433E433543636AAB
:1039E000304E676829430A431A4342EA090949EA03
:1039F0000A0A0CEA06064AEA06063043236BE16A25
:103A00002569A468C8F80000D8F814200B4322F0F8
:103A100007021343C8F81430C8F80450C8F80870F7
:103A2000C8F80C40BDE8F0871D4840F247110AF085
:103A3000CBF9B6E71A4840F23F110AF0C5F96369BD
:103A400033F400723FF476AF15484FF4A0710AF0DA
:103A5000BBF9A36933F480623FF471AF104840F2C0
:103A600041110AF0B1F96AE7B3F1006F3FF44BAFCF
:103A70000B4840F23D110AF0A7F944E708484FF41B
:103A8000A4710AF0A1F9A06B30F4C00392D197E7BA
:103A9000034840F245110AF097F976E710600240BA
:103AA000908E01083F801CF0002303604360836018
:103AB000C360036143618361C361036243628362E4
:103AC000C362036343638363704700BF38B5254B0C
:103AD000984204460D4632D0183398422FD01833FE
:103AE00098422CD01833984229D01833984226D0C7
:103AF0001833984223D01833984220D01833984274
:103B00001DD003F55673984219D01833984216D039
:103B10001833984213D01833984210D01833984273
:103B20000DD0183398420AD01833984207D0183372
:103B3000984204D00C4840F2D9110AF045F9012D01
:103B400009D909484FF4ED710AF03EF9236843F0B2
:103B50000103236038BD002DF8D1236823F0010351
:103B6000236038BD10600240908E010838B5254BA7
:103B7000984204460D4632D0183398422FD018335D
:103B800098422CD01833984229D01833984226D026
:103B90001833984223D01833984220D018339842D3
:103BA0001DD003F55673984219D01833984216D099
:103BB0001833984213D01833984210D018339842D3
:103BC0000DD0183398420AD01833984207D01833D2
:103BD000984204D00C4840F2FD110AF0F5F865B1A6
:103BE000B5F5004F04D008484FF4FF710AF0ECF827
:103BF000236843F40043236038BD236823F4004363
:103C0000236038BD10600240908E010838B5254B06
:103C1000984204460D4632D0183398422FD01833BC
:103C200098422CD01833984229D01833984226D085
:103C30001833984223D01833984220D01833984232
:103C40001DD003F55673984219D01833984216D0F8
:103C50001833984213D01833984210D01833984232
:103C60000DD0183398420AD01833984207D0183331
:103C7000984204D00C4840F221210AF0A5F85DB129
:103C8000202D04D0084840F222210AF09DF8236834
:103C900043F02003236038BD236823F02003236012
:103CA00038BD00BF10600240908E010838B51D4B32
:103CB000984204460D4632D0183398422FD018331C
:103CC00098422CD01833984229D01833984226D0E5
:103CD0001833984223D01833984220D01833984292
:103CE0001DD003F55673984219D01833984216D058
:103CF0001833984213D01833984210D01833984292
:103D00000DD0183398420AD01833984207D0183390
:103D1000984204D0044840F275210AF055F86560D5
:103D200038BD00BF10600240908E01081D4B9842C4
:103D300010B5044632D0183398422FD01833984229
:103D40002CD01833984229D01833984226D01833F3
:103D5000984223D01833984220D0183398421DD06F
:103D600003F55673984219D01833984216D0183379
:103D7000984213D01833984210D0183398420DD07F
:103D8000183398420AD01833984207D01833984213
:103D900004D005484FF421710AF016F8606880B22B
:103DA00010BD00BF10600240908E010830B5294B55
:103DB000984283B004460D4634D01833984231D02F
:103DC000183398422ED0183398422BD0183398428B
:103DD00028D01833984225D01833984222D018336F
:103DE00098421FD003F5567398421BD0183398425F
:103DF00018D01833984215D01833984212D018337F
:103E000098420FD0183398420CD01833984209D0FA
:103E10001833984206D01048019240F2D22109F09E
:103E2000D3FF019A72B1B2F5002F04D00A4840F2D4
:103E3000D32109F0C9FF236843F4002323602561DF
:103E400003B030BD236823F400232360256103B051
:103E500030BD00BF10600240908E010838B5254B80
:103E6000984204460D4632D0183398422FD018336A
:103E700098422CD01833984229D01833984226D033
:103E80001833984223D01833984220D018339842E0
:103E90001DD003F55673984219D01833984216D0A6
:103EA0001833984213D01833984210D018339842E0
:103EB0000DD0183398420AD01833984207D01833DF
:103EC000984204D00C484FF43C7109F07DFF012D5D
:103ED00009D9094840F2F12109F076FF236843F43B
:103EE0008023236038BD002DF8D1236823F480237C
:103EF000236038BD10600240908E010830B5254B1C
:103F0000984283B004460D4634D01833984231D0DD
:103F1000183398422ED0183398422BD01833984239
:103F200028D01833984225D01833984222D018331D
:103F300098421FD003F5567398421BD0183398420D
:103F400018D01833984215D01833984212D018332D
:103F500098420FD0183398420CD01833984209D0A9
:103F60001833984206D00C48019240F21A3109F0F9
:103F70002BFF019A52B1B2F5002F04D0064840F24F
:103F80001B3109F021FF256103B030BDE56003B0AE
:103F900030BD00BF10600240908E01081D4B98425A
:103FA00010B5044632D0183398422FD018339842B7
:103FB0002CD01833984229D01833984226D0183381
:103FC000984223D01833984220D0183398421DD0FD
:103FD00003F55673984219D01833984216D0183307
:103FE000984213D01833984210D0183398420DD00D
:103FF000183398420AD01833984207D018339842A1
:1040000004D0054840F2353109F0DEFE2068C0F3E7
:10401000C04010BD10600240908E01081D4B9842B8
:1040200010B5044632D0183398422FD01833984236
:104030002CD01833984229D01833984226D0183300
:10404000984223D01833984220D0183398421DD07C
:1040500003F55673984219D01833984216D0183386
:10406000984213D01833984210D0183398420DD08C
:10407000183398420AD01833984207D01833984220
:1040800004D0054840F2A23109F09EFE206800F0FD
:10409000010010BD10600240908E01081D4B984237
:1040A00010B5044632D0183398422FD018339842B6
:1040B0002CD01833984229D01833984226D0183380
:1040C000984223D01833984220D0183398421DD0FC
:1040D00003F55673984219D01833984216D0183306
:1040E000984213D01833984210D0183398420DD00C
:1040F000183398420AD01833984207D018339842A0
:1041000004D005484FF4717109F05EFE606900F05B
:10411000380010BD10600240908E010838B56D4B1C
:10412000984204460D4632D0183398422FD01833A7
:1041300098422CD01833984229D01833984226D070
:104140001833984223D01833984220D0183398421D
:104150001DD003F55673984219D01833984216D0E3
:104160001833984213D01833984210D0183398421D
:104170000DD0183398420AD01833984207D018331C
:10418000984204D0544840F2E13109F01DFE534BEF
:104190009D4200F08A80103B9D4200F08680083BE3
:1041A0009D4200F082804E4B9D427ED0033B9D425B
:1041B0007BD04C4B9D4278D0A3F580639D4274D058
:1041C000A3F500739D4270D0A3F580739D426CD01F
:1041D000C03B9D4269D0B5F1815F66D0424B9D42A4
:1041E00063D0A3F500239D425FD0A3F580239D42B9
:1041F0005BD0A3F540339D4257D0B5F1C05F54D09A
:10420000B5F1A05F51D0B5F1905F4ED0B5F1885FA8
:104210004BD0B5F1825F48D0344B9D4245D0103B26
:104220009D4242D0083B9D423FD0043B9D423CD042
:10423000033B9D4239D003F2FF739D4235D0A3F575
:1042400080639D4231D0A3F500739D422DD0A3F52C
:1042500080739D4229D0C03B9D4226D0244B9D4275
:1042600023D0A3F580139D421FD0A3F500239D42C8
:104270001BD0A3F580239D4217D0A3F540339D4268
:1042800013D0B5F1205F10D0B5F1105F0DD0B5F1AE
:10429000085F0AD0B5F1045F07D0B5F1015F04D023
:1042A0000D4840F2E23109F08FFD124B1249134ADA
:1042B0008C428CBF14461C46AB004CBF636823681D
:1042C00025F0F02525F082151D420CBF00200120AD
:1042D00038BD00BF10600240908E01082000001021
:1042E00004008010000800100000101020000020C2
:1042F00000002020006002400F6402400064024081
:1043000038B52C4B984204460D4632D018339842AB
:104310002FD0183398422CD01833984229D0183314
:10432000984226D01833984223D01833984220D090
:10433000183398421DD003F55673984219D018339C
:10434000984216D01833984213D01833984210D0A0
:10435000183398420DD0183398420AD01833984237
:1043600007D01833984204D0134840F2224109F094
:104370002BFD05F04053B3F1405F00D0ABB90E48C0
:1043800040F2234109F020FD0C490D4A0D4B8C42AF
:104390008CBF14461C4615F0005F25F0F02525F073
:1043A000821514BFE560A56038BD074B2B40002B7C
:1043B000EAD0E4E710600240908E01080F640240EA
:1043C000006402400060024082F082C0354B984297
:1043D00070B504460D46164632D0183398422FD099
:1043E000183398422CD01833984229D01833984269
:1043F00026D01833984223D01833984220D018334F
:1044000098421DD003F55673984219D0183398423C
:1044100016D01833984213D01833984210D018335E
:1044200098420DD0183398420AD01833984207D0DA
:104430001833984204D01C4840F24F4109F0C4FCA4
:1044400035F09E0316D1ADB1012E04D9164840F2C5
:10445000514109F0B9FC2B0612D56369DEB143F076
:104460008003802D636115D0236805F01E051D4370
:10447000256070BD0C484FF48A6109F0A5FCE3E7A4
:10448000802D07D0002EEFD1236805F01E0523EA0A
:104490000505256070BD23F08003802D6361F3D195
:1044A00070BD00BF10600240908E0108764B9842AC
:1044B00070B504460D4632D0183398422FD01833C9
:1044C00098422CD01833984229D01833984226D0DD
:1044D0001833984223D01833984220D0183398428A
:1044E0001DD003F55673984219D01833984216D050
:1044F0001833984213D01833984210D0183398428A
:104500000DD0183398420AD01833984207D0183388
:10451000984204D05D4840F2874109F055FC5C4B5D
:104520009D4200F09180A3F58043103B9D4200F036
:104530008B80A3F50053083B9D4200F08580554BCE
:104540009D4200F08180544B9D427DD0534B9D4253
:104550007AD0A3F588439D4276D0A3F508539D42B7
:1045600072D0A3F588539D426ED04D4B9D426BD0C7
:104570004C4B9D4268D0A3F582139D4264D0A3F5B5
:1045800002239D4260D0A3F582239D425CD0464B1E
:104590009D4259D0454B9D4256D0454B9D4253D0EC
:1045A000444B9D4250D0444B9D424DD0434B9D4285
:1045B0004AD0434B9D4247D0A3F58043103B9D42D8
:1045C00042D0404B9D423FD0A3F58053043B9D42D7
:1045D0003AD03D4B9D4237D03C4B9D4234D0A3F561
:1045E00088439D4230D0A3F508539D422CD0A3F5BB
:1045F00088539D4228D0364B9D4225D0354B9D4255
:1046000022D0A3F582139D421ED0A3F502239D4222
:104610001AD0A3F582239D4216D02F4B9D4213D072
:104620002E4B9D4210D02E4B9D420DD02D4B9D42C6
:104630000AD02D4B9D4207D02C4B9D4204D01348ED
:104640004FF4916109F0C0FB294E2A4A2A4925F00E
:10465000F02020F0C313B44298BF0A4683B121680A
:1046600001F01E0101EAD521AB004CBF536813686D
:1046700020F08210184002D0081C18BF012070BD25
:10468000616901F08001EFE710600240908E01083F
:10469000208000100410001001000090008800101D
:1046A0004000009000802010000001900080001861
:1046B0000040001400200012001000110000409083
:1046C0002080002008200020010000A00088002099
:1046D000400000A000802020000001A000800028F1
:1046E000004000240020002200100021000040A013
:1046F0000F640240006402400060024038B52C4B59
:10470000984204460D4632D0183398422FD01833C1
:1047100098422CD01833984229D01833984226D08A
:104720001833984223D01833984220D01833984237
:104730001DD003F55673984219D01833984216D0FD
:104740001833984213D01833984210D01833984237
:104750000DD0183398420AD01833984207D0183336
:10476000984204D0134840F2D74109F02DFB05F0E0
:104770004053B3F1405F00D0ABB90E484FF49B619A
:1047800009F022FB0C490D4A0D4B8C428CBF14469C
:104790001C4615F0005F25F0F02525F0821514BFAA
:1047A000E560A56038BD074B2B40002BEAD0E4E75D
:1047B00010600240908E01080F64024000640240C5
:1047C0000060024082008240044B054900221A60CA
:1047D0005A609A60DA605961704700BF003C01403E
:1047E000FFFF7F00037913F0FB0F70B5044603D081
:1047F0002D487C2109F0E8FA637903F0FB02082ACE
:1048000005D0102B03D028487D2109F0DDFA22685D
:10481000D30DDB05002B2FD1002A2DD0A379012B3E
:1048200004D921487F2109F0CFFAA3794BB31F4B5C
:1048300021681E6822796579C84306401E605E685B
:1048400002F1804202F59E32304058601068014308
:10485000116022689868D14308409860D868102D8C
:1048600001EA0001D96017D005F1804303F59E33BA
:1048700019680A431A6070BD0B487E2109F0A4FA3A
:10488000CCE72379216803F1804303F59E331A684E
:1048900022EA01021A6070BD996811439960D968D3
:1048A0000A43DA6070BD00BFC48E0108003C0140BD
:1048B00000230C224271036003718371704700BFB3
:1048C000C30DDB0510B5044603B918B90448C1216E
:1048D00009F07AFA034B1A6914431C6110BD00BF3A
:1048E000C48E0108003C0140431E012B10B5044654
:1048F0003CD904283AD0082838D0102836D02028AF
:1049000034D0402832D0802830D0B0F5807F2DD0F0
:10491000B0F5007F2AD0B0F5806F27D0B0F5006FDA
:1049200024D0B0F5805F21D0B0F5005F1ED0B0F587
:10493000804F1BD0B0F5004F18D0B0F5803F15D098
:10494000B0F5003F12D0B0F5802F0FD0B0F5002F9A
:104950000CD0B0F5801F09D0B0F5001F06D0B0F51F
:10496000800F03D00548E02109F02EFA044B5B6963
:104970001C420CBF0020012010BD00BFC48E0108E6
:10498000003C0140C30DDB0510B5044603B918B95E
:104990000348F62109F018FA024B5C6110BD00BF14
:1049A000C48E0108003C0140431E012B10B5044693
:1049B0003DD904283BD0082839D0102837D02028EA
:1049C00035D0402833D0802831D0B0F5807F2ED02C
:1049D000B0F5007F2BD0B0F5806F28D0B0F5006F18
:1049E00025D0B0F5805F22D0B0F5005F1FD0B0F5C4
:1049F000804F1CD0B0F5004F19D0B0F5803F16D0D5
:104A0000B0F5003F13D0B0F5802F10D0B0F5002FD7
:104A10000DD0B0F5801F0AD0B0F5001F07D0B0F55B
:104A2000800F04D007484FF4837109F0CDF9064B8D
:104A30001A685869204003D014420CBF002001209E
:104A400010BD00BFC48E0108003C0140C30DDB0552
:104A500010B5044603B920B9034840F21D1109F00E
:104A6000B3F9024B5C6110BDC48E0108003C0140EB
:104A7000072810B5044603D90348A92109F0A4F971
:104A8000024BE4B21C7010BDF88E0108003C0240DD
:104A9000012808B509D90948B82109F095F9084B4A
:104AA0001A6842F480721A6008BD0028F7D1044BDE
:104AB0001A6822F480721A6008BD00BFF88E0108DF
:104AC000003C0240012808B509D90948CE2109F067
:104AD0007BF9084B1A6842F400721A6008BD00287E
:104AE000F7D1044B1A6822F400721A6008BD00BFA7
:104AF000F88E0108003C0240012808B509D9094890
:104B0000E32109F061F9084B1A6842F480621A60E7
:104B100008BD0028F7D1044B1A6822F480621A609D
:104B200008BD00BFF88E0108003C0240024B1A6825
:104B300042F400621A607047003C0240024B1A685F
:104B400042F480521A607047003C0240044B1A69DC
:104B5000002A03DA0349044A59605A60704700BFCB
:104B6000003C024023016745AB89EFCD024B1A6937
:104B700042F000421A617047003C0240044B5A69FF
:104B8000D20703D50349044A99609A60704700BF71
:104B9000003C02403B2A19087F6E5D4C024B5A696B
:104BA00042F001025A617047003C024010F0F30FDE
:104BB00010B5044604D007484FF4467109F004F9D3
:104BC000054B1A7802F0F3021A701A7814431C701D
:104BD00010BD00BFF88E0108143C0240024B58691A
:104BE000C0F34710704700BF003C0240014B1888DB
:104BF00080B27047163C0240024B1878AA3818BFA2
:104C000001207047153C0240024B187800F00C0060
:104C1000704700BF143C024038B530F04073044682
:104C20000D460CD158B1012D10D90C4840F28B31F2
:104C300009F0CAF80A4B1A6914431C6138BD0748C9
:104C400040F28A3109F0C0F8012DEED8002DF1D1E3
:104C5000034B1A6922EA04041C6138BDF88E01086E
:104C6000003C0240431E012B10B504460FD910280A
:104C70000DD020280BD0402809D0802807D0B0F5CF
:104C8000803F04D0054840F2AA3109F09DF8044B5A
:104C9000DB681C420CBF0020012010BDF88E01080B
:104CA000003C024030F0F30310B5044600D120B9B7
:104CB000034840F2C73109F087F8024BDC6010BDB1
:104CC000F88E0108003C02400B4BDA68D1030AD48D
:104CD000DA68D20601D505207047DA6812F0EF0FC6
:104CE00003D00620704701207047DB6813F0020FE5
:104CF0000CBF082007207047003C024000B583B07D
:104D000008238DF80730FFF7DFFF8DF807009DF8C7
:104D10000730012BF7D09DF80700C0B203B05DF853
:104D200004FB00BF30F0180370B505460C4608D0F0
:104D3000202B06D0402B04D0204840F25B1109F014
:104D400043F8032C06D8002C33D1FFF7D7FF0828EF
:104D50000FD070BD19484FF4AE7109F035F8022C30
:104D600014BF4FF440744FF40074FFF7C7FF0828D6
:104D7000EFD1134E336923F44073336133691C431D
:104D80003461336923F0F8033361336943F002037C
:104D90001D433561336943F480333361FFF7AEFF60
:104DA000336923F002033361336923F0F80333617D
:104DB00070BD012CD3D14FF48074C6E7F88E010882
:104DC000003C024070B50446FFF798FF032C0546EF
:104DD00004D84CBB082D0ED0284670BD154840F2B3
:104DE0009D1108F0F1FF022C14BF4FF440744FF4F2
:104DF0000074082DF0D1104E336923F440733361F1
:104E000033691C433461336943F00403336133690C
:104E100043F480333361FFF771FF3369054623F0B4
:104E200004033361284670BD012CDCD14FF480743B
:104E3000D0E700BFF88E0108003C02401A49F8B5DF
:104E4000064600F17840884214461D4607D906F10F
:104E5000604303F5084340F20E22934204D8FFF763
:104E60004DFF082809D0F8BD10484FF4E87108F04C
:104E7000ABFFFFF743FF0828F5D10D4F3B6923F443
:104E800040733B613B6943F440733B613B6943F0D2
:104E900001033B61C6E90045FFF730FF3B6923F0A2
:104EA00001033B61F8BD00BFFEFF0F00F88E010853
:104EB000003C0240194B00F178429A4270B504461A
:104EC0000E4607D900F1604303F5084340F20E2275
:104ED000934204D8FFF712FF082809D070BD10488C
:104EE0004FF4FB7108F070FFFFF708FF0828F5D1B9
:104EF0000C4D2B6923F440732B612B6943F4007331
:104F00002B612B6943F001032B612660FFF7F6FE4E
:104F10002B6923F001032B6170BD00BFFEFF0F0062
:104F2000F88E0108003C0240194B00F178429A4289
:104F300070B504460E4607D900F1604303F50843F7
:104F400040F20E22934204D8FFF7D8FE082809D079
:104F500070BD10484FF4077108F036FFFFF7CEFE22
:104F60000828F5D10C4D2B6923F440732B612B6974
:104F700043F480732B612B6943F001032B6126807E
:104F8000FFF7BCFE2B6923F001032B6170BD00BF4E
:104F9000FEFF0F00F88E0108003C0240184B00F1A4
:104FA00078429A4270B504460E4607D900F1604334
:104FB00003F5084340F20E22934204D8FFF79EFE09
:104FC000082809D070BD0F4840F2422108F0FCFECD
:104FD000FFF794FE0828F5D10B4D2B6923F440739D
:104FE0002B612B692B612B6943F001032B61267028
:104FF000FFF784FE2B6923F001032B6170BD00BF16
:10500000FEFF0F00F88E0108003C024038B520F486
:105010007F6323F00F0304460D4663B958B1012D99
:1050200004D90E4840F2B72108F0CEFEFFF766FE25
:10503000082806D038BD094840F2B62108F0C4FE61
:10504000EDE7074B1A881DB91443A4B21C8038BD84
:1050500092B222EA04041C8038BD00BFF88E010819
:10506000163C0240AA2810B5044606D0552804D0A4
:10507000054840F2D92108F0A7FEFFF73FFE0828B7
:1050800004BF024B1C7010BDF88E0108153C024095
:1050900010F0DF0F70B504460D4616461DD115F011
:1050A000BF0F14D173060CD1FFF728FE082807D1D3
:1050B0000D4B1A7802F00F02164335432C431C7037
:1050C00070BD0A484FF43F7108F07EFEECE70748D8
:1050D00040F2FB2108F078FEE4E7044840F2FA21B0
:1050E00008F072FEDBE700BF143C0240F88E0108B6
:1050F000034B1A7842F002021A70FFF7FFBD00BF9F
:10510000143C024008B5424B98423BD003F5806303
:10511000984241D003F58063984247D003F58063FD
:1051200098424DD003F58063984221D003F5806307
:1051300098424FD003F58063984255D003F58063C1
:1051400098425BD003F58063984205D031487B21BB
:10515000BDE8084008F038BE4FF48070012101F02E
:1051600071FF4FF480700021BDE8084001F06ABF74
:105170001020012101F066FF10200021BDE8084049
:1051800001F060BF0120014601F05CFF0120002119
:10519000BDE8084001F056BF0220012101F052FF96
:1051A00002200021BDE8084001F04CBF042001218D
:1051B00001F048FF04200021BDE8084001F042BF93
:1051C0000820012101F03EFF08200021BDE8084031
:1051D00001F038BF2020012101F034FF2020002100
:1051E000BDE8084001F02EBF4020012101F02AFF58
:1051F00040200021BDE8084001F024BF80200121AB
:1052000001F020FF80200021BDE8084001F01ABF16
:10521000000002402C8F01082DE9F84F504B9842B6
:105220000546884623D003F5806398421FD003F5D6
:10523000806398421BD003F58063984217D003F532
:105240008063984213D003F5806398420FD003F532
:10525000806398420BD003F58063984207D003F532
:105260008063984203D03F48BB2108F0ADFDD8F8D9
:105270000030002B6ED098F80430032B65D898F8D6
:105280000730022B5CD8002634464FF001094FF05E
:10529000030B04E00134102C06F1020627D0D8F8E5
:1052A000007009FA04F31F409F42F3D12A6898F86E
:1052B00004300BFA06FA6FEA0A0A0AEA02022A60C6
:1052C0002A6803FA06F1013B0A43012B2A6010D930
:1052D000EA6898F807300AEA0202EA60EA68B3402E
:1052E00001341343102CEB6006F10206D7D1BDE860
:1052F000F88F98F80520032A1BD8A96898F806307B
:1053000018480AEA0101A960A968B2400A43012BC2
:10531000AA6004D9D72108F057FD98F806306A68CA
:1053200022EA07076F606A68A3409BB213436B6071
:10533000CEE70C48D02108F047FD98F80520DCE7BF
:105340000848BE2108F040FD9DE70648BD2108F051
:105350003BFD94E70348BC2108F036FD8BE700BF16
:10536000000002402C8F010800234FF6FF720260FC
:10537000037143718371C371704700BF30B5214B16
:1053800083B04FF48032984204460D46019224D0F7
:1053900003F58063984220D003F5806398421CD0C7
:1053A00003F58063984218D003F58063984214D0C7
:1053B00003F58063984210D003F5806398420CD0C7
:1053C00003F58063984208D003F58063984204D0C7
:1053D0000D484FF4827108F0F7FC25B90A4840F2F5
:1053E000051108F0F1FC019B2B430193019BE36144
:1053F000E561019BE361E3690193E369019303B014
:1054000030BD00BF000002402C8F010838B52E4B84
:10541000984204460D4624D003F58063984220D07C
:1054200003F5806398421CD003F58063984218D03E
:1054300003F58063984214D003F58063984210D03E
:1054400003F5806398420CD003F58063984208D03E
:1054500003F58063984204D01C484FF4987108F01B
:10546000B3FC6B1E012B28D9042D26D0082D24D087
:10547000102D22D0202D20D0402D1ED0802D1CD0CC
:10548000B5F5807F19D0B5F5007F16D0B5F5806FE2
:1054900013D0B5F5006F10D0B5F5805F0DD0B5F520
:1054A000005F0AD0B5F5804F07D0B5F5004F04D0A6
:1054B000064840F2311108F087FC23691D420CBFF9
:1054C0000020012038BD00BF000002402C8F0108E1
:1054D000164B984210B5044624D003F580639842D9
:1054E00020D003F5806398421CD003F58063984276
:1054F00018D003F58063984214D003F58063984276
:1055000010D003F5806398420CD003F58063984275
:1055100008D003F58063984204D005484FF4A37186
:1055200008F052FC206980B210BD00BF00000240AC
:105530002C8F010838B52E4B984204460D4624D0D6
:1055400003F58063984220D003F5806398421CD015
:1055500003F58063984218D003F58063984214D015
:1055600003F58063984210D003F5806398420CD015
:1055700003F58063984208D003F58063984204D015
:105580001C4840F2571108F01FFC6B1E012B28D954
:10559000042D26D0082D24D0102D22D0202D20D04F
:1055A000402D1ED0802D1CD0B5F5807F19D0B5F5CB
:1055B000007F16D0B5F5806F13D0B5F5006F10D011
:1055C000B5F5805F0DD0B5F5005F0AD0B5F5804F19
:1055D00007D0B5F5004F04D006484FF4AC7108F081
:1055E000F3FB63691D420CBF0020012038BD00BFE2
:1055F000000002402C8F0108164B984210B504465B
:1056000024D003F58063984220D003F5806398424C
:105610001CD003F58063984218D003F5806398424C
:1056200014D003F58063984210D003F5806398424C
:105630000CD003F58063984208D003F5806398424C
:1056400004D0054840F26D1108F0BEFB606980B2DD
:1056500010BD00BF000002402C8F010838B5194B67
:10566000984204460D4624D003F58063984220D02A
:1056700003F5806398421CD003F58063984218D0EC
:1056800003F58063984214D003F58063984210D0EC
:1056900003F5806398420CD003F58063984208D0EC
:1056A00003F58063984204D0074840F27F1108F068
:1056B0008BFB25B904484FF4C07108F085FB2583A6
:1056C00038BD00BF000002402C8F010838B5194BCF
:1056D000984204460D4624D003F58063984220D0BA
:1056E00003F5806398421CD003F58063984218D07C
:1056F00003F58063984214D003F58063984210D07C
:1057000003F5806398420CD003F58063984208D07B
:1057100003F58063984204D007484FF4C97108F03C
:1057200053FB25B9044840F2931108F04DFB658303
:1057300038BD00BF000002402C8F010830B5354B4A
:10574000984283B004460D4626D003F58063984204
:1057500022D003F5806398421ED003F580639842FF
:105760001AD003F58063984216D003F580639842FF
:1057700012D003F5806398420ED003F580639842FF
:105780000AD003F58063984206D0234801924FF473
:10579000D37108F019FB019A6B1E012B2AD9042D35
:1057A00028D0082D26D0102D24D0202D22D0402DF9
:1057B00020D0802D1ED0B5F5807F1BD0B5F5007FA1
:1057C00018D0B5F5806F15D0B5F5006F12D0B5F5CE
:1057D000805F0FD0B5F5005F0CD0B5F5804F09D0D4
:1057E000B5F5004F06D00C48019240F2A71108F021
:1057F000EBFA019A012A07D907484FF4D47108F04F
:10580000E3FA258303B030BD002AFAD1658303B0E3
:1058100030BD00BF000002402C8F010838B5164B88
:10582000984204460D4624D003F58063984220D068
:1058300003F5806398421CD003F58063984218D02A
:1058400003F58063984214D003F58063984210D02A
:1058500003F5806398420CD003F58063984208D02A
:1058600003F58063984204D0044840F2BD1108F06B
:10587000ABFA656138BD00BF000002402C8F010803
:1058800038B5174B984204460D4624D003F5806383
:10589000984220D003F5806398421CD003F58063C2
:1058A000984218D003F58063984214D003F58063C2
:1058B000984210D003F5806398420CD003F58063C2
:1058C000984208D003F58063984204D0054840F21E
:1058D000CB1108F079FA63695D40656138BD00BF9E
:1058E000000002402C8F0108274B984270B50446F7
:1058F0000D46164624D003F58063984220D003F568
:10590000806398421CD003F58063984218D003F559
:105910008063984214D003F58063984210D003F559
:10592000806398420CD003F58063984208D003F559
:105930008063984204D0154840F2172108F044FAD9
:105940000F2D1AD80D2E06D90F2E04D00F4840F275
:10595000192108F039FAEB0804EB830405F0070578
:10596000226AAD000F23AB4022EA03032362236ABD
:1059700006FA05F51D43256270BD04484FF4067113
:1059800008F022FADEE700BF000002402C8F010879
:1059900008B51A4B984219D003F58063984221D07C
:1059A00003F58063984205D015488721BDE808407B
:1059B00008F00ABA4FF40000012101F0B7FB4FF4E0
:1059C00000000021BDE8084001F0B0BB4FF400101A
:1059D000012101F0ABFB4FF400100021BDE80840AD
:1059E00001F0A4BB4FF48000012101F09FFB4FF4B4
:1059F00080000021BDE8084001F098BB0054004041
:105A0000608F0108F0B55D4B984285B004460D46A5
:105A10000BD003F58063984207D003F5806398426A
:105A200003D05748B62108F0CFF92B68554A013BFF
:105A3000934200F28980AB8823F002022AB10A2B3C
:105A400003D04F48B82108F0BFF9EB88B3F5804F79
:105A500007D04BF6FF72934203D04948B92108F0B2
:105A6000B3F92B89B3F5806F73D26B8923F480630C
:105A70009BB2002B77D1AB89C3F30E03B3F5804FF4
:105A800003D03F48BC2108F09FF96846A68801F082
:105A900047F902993C482A68DFF8F4C0A0FB0130BE
:105AA00026F03F063604800C360C87B23E43A680B3
:105AB000238823F001031B041B0C6245238023D899
:105AC0005300B1FBF3F39BB2032B07F1010798BF1F
:105AD00004232784A38323886E89A8882989AA8917
