:020000040800F2
:100000000000022031DE00082DDE00082DDE000891
:100010002DDE00082DDE00082DDE000800000000A7
:100020000000000000000000000000002DDE0008BD
:100030002DDE0008000000002DDE0008710501081B
:100040002DDE00082DDE00082DDE00082DDE000864
:100050002DDE00082DDE00082DDE00082DDE000854
:100060002DDE00082DDE00082DDE00082DDE000844
:100070002DDE00082DDE00082DDE00082DDE000834
:100080002DDE00082DDE00082DDE00082DDE000824
:100090002DDE00082DDE00082DDE00082DDE000814
:1000A0002DDE00084DE300082DDE00082DDE0008DF
:1000B0002DDE00082DDE0008750601082DDE000883
:1000C0002DDE00082DDE00082DDE00082DDE0008E4
:1000D0002DDE00082DDE00082DDE000831DF0008CF
:1000E0004D3B01082DDE00082DDE00082DDE000846
:1000F0002DDE00082DDE00082DDE00082555010844
:100100002DDE00082DDE00082DDE00082DDE0008A3
:100110002DDE00082DDE00082DDE00082DDE000893
:100120002DDE0008F53501082DDE00082DDE000863
:100130002DDE00082DDE00082DDE00082DDE000873
:100140002DDE00082DDE00082DDE0008C5020008A7
:100150002DDE00082DDE00082DDE00082DDE000853
:100160002DDE00082DDE00082DDE00082DDE000843
:100170002DDE00082DDE0008BD3701082DDE000849
:100180002DDE00082DDE000870B50120002482B0AD
:10019000C4F20204014608F031F90326002369463F
:1001A00020464FF4D85202258DF806308DF80730DE
:1001B00000928DF804508DF8056005F0C3FF2046CD
:1001C00008210A2206F01AFC204609210A2206F01C
:1001D00015FC20460B210A2206F010FC0A222046BC
:1001E0000C2106F00BFC01254FF480636946204684
:1001F00000938DF806508DF807508DF8056005F0D6
:10020000A1FF0A210A46204606F0F8FB8020294675
:1002100008F022F94FF08050294608F04FFA02B05A
:1002200070BD00BF00B54FF4C06083B002F026FA85
:1002300001234322032101A88DF804208DF8053005
:100240008DF806108DF8073002F03AFA03B000BDC1
:10025000C0EB001044F62513C200C2F29243A3FB88
:100260000210111A00EB51039A0802F0010001215B
:100270003AB110B102218A4204D302318A42FCD23F
:1002800070477047704700BF4DF2C042C0F2010294
:1002900044F6251302FB00F0C2F29243A3FB0021B7
:1002A000401A01EB5002900800F00101012338B11F
:1002B00011B10223984204D302339842FCD2704712
:1002C000704770474FF66030C2F2000000F078BF10
:1002D00030B5054683B0002303200193FFF7B8FF34
:1002E000EB681A694FF454640192C0F203040FE002
:1002F000FFF7AEFFEB681A6901920199032000290C
:100300000CDBFFF7A5FFEB681969013C019124D0D4
:1003100001990320002904F1FF34E9DA019840F043
:10032000010201920199196118694FF45462019018
:10033000C0F2030208E0186901900199C90709D5C4
:100340001869013A019005D0019911F0010F02F1ED
:10035000FF32F0D10320FFF77BFF002003B030BD58
:1003600010B4C47814BB00EB820003339B10D0F8A8
:10037000D0001BD051F8042B026001225C1E043116
:10038000934204F0010411D034B151F8044C02221C
:1003900004319342046009D051F8044C046051F8D0
:1003A000044B0232043193420460F5D1002010BCAA
:1003B000704700BF033270B49510D0F8D0401ED003
:1003C0000B4620686A1E43F8040B02F0010001226C
:1003D0000433954211D030B12068022243F8040C56
:1003E0000433954209D0266843F8046C266843F824
:1003F000046B023204339542F5D101EB85010846C6
:1004000070BC70472DE9F00F002301224024012920
:1004100084B0C3708270848000F0BF80002900F037
:1004200099800178427800914FF40064C3600461C0
:10043000002A00F0D4804FF460654FF488664FF4D2
:1004400080610395029601919B464FEA421AAAF1F8
:10045000200220230BF510650BF53066C2F3401423
:10046000021D5345856146651ED04CB10BF51264E3
:100470000BF532614023946151650432534513D02A
:10048000814603F1200705EB030806EB030CE8198E
:100490004033F719C2F81880C2F854C0D06197658C
:1004A00008325345EDD14846019C00994461029CB5
:1004B000C0F8CC40002945D0009D0BF5A06202EBAE
:1004C0004515AC1A0BF5A463203CC0F89020021D22
:1004D000AB42C4F3401111D031B1C2F890300BF5EA
:1004E000A8630432AB4209D003F12004C2F8903073
:1004F0004033C2F894400832AB42F5D1009C0BF572
:10050000805202EB0435A91A0BF50053A1F5805176
:10051000C0F8D020021DAB42C1F3003112D031B17E
:10052000C2F8D03003F580530432AB420AD003F551
:100530008054C2F8D03003F50053C2F8D4400832DA
:10054000AB42F4D10399C0F80C11002004B0BDE80F
:10055000F00F70470C254FF4A0660023C1720570A0
:10056000C6804FF4606100954FF480664FF4886553
:1005700006224FF40064C4F20403C4F20401C4F27E
:100580000405C4F204064270039102950196C4F278
:1005900004049B46C360046157E708250226C17224
:1005A0004FF4A0710570C18006724FF46061009530
:1005B0004FF480664FF4886504224FF400644FF0D6
:1005C000A043C5F20001C5F20005C5F20006427065
:1005D000039102950196C5F200049B46DAE74FF4B9
:1005E00060634FF488614FF4806403930291019437
:1005F000934659E738B5037A0025012B04462FD0DE
:10060000C168CA6842F04003CB60FFF761FE207A00
:10061000617A032814BF4FF480324FF4403242F421
:10062000402309B142F4E013E16814208B63FFF723
:100630002BFEE368207ADA68032808BF42F4803290
:10064000DA60217A032935D0E378012B06D1E068FE
:10065000816821F03E0242F02A038360002038BD09
:10066000C068617A826B65F3104209B142F480126E
:100670008263C36823F4800121F0500242F010032A
:100680006FF3C3036FF3C7136FF351436FF3D34398
:10069000C3602046FFF71CFEE0780128DED105216B
:1006A00061F34405E26845F020059560E378012B8D
:1006B000CDD0D3E71D6B012060F39B656FF3D75559
:1006C0002D2245F0805562F31645C8201D63FFF7C3
:1006D000DBFDE36845F400051D63C820FFF7D4FD8A
:1006E000B2E700BFC3689A6842F00100986000203A
:1006F000704700BFC3689A6822F00100986000202C
:10070000704700BF00B583B000230193019A42F007
:1007100020030193019A61F38A1201920199C26840
:10072000116110694FF454630190C0F2030308E0B3
:10073000106901900199880609D51069013B019063
:1007400005D0019911F0200F03F1FF33F0D1032000
:10075000FFF77EFD002003B000BD00BF00B583B0F1
:1007600000230193019941F010020192019BC0689E
:10077000036101694FF454630191C0F2030308E07F
:1007800001690191019AD10609D50169013B0191E5
:1007900005D0019A12F0100F03F1FF33F0D10320BE
:1007A000FFF756FD002003B000BD00BFC26808B5CA
:1007B000D36801296FF35D736FF39E7308D009B995
:1007C00043F080433220D360FFF75EFD002008BD78
:1007D00043F00053F6E700BFC368586900F001001A
:1007E000704700BFC368586900F0010181F0010043
:1007F000704700BFC368586900F00100704700BF30
:10080000C3685A6998691040704700BFC368586848
:10081000704700BF03691A6861F301021A607047EC
:1008200010B4C3684FF4006400214FF0FF32C8F2E7
:10083000000499615A615A605A619C61C478986950
:100840008C4214BF0C4610240C2244F48724C4F2BA
:100850003802224320EA020010439861084610BC87
:10086000704700BFF8B50546D0F80C012A69002191
:100870000160166861F3CC2616600B46E97A0129FF
:1008800056D010212846FFF73DFF2846FFF766FFA8
:100890002E6900224FF0FF3332617261B361F26161
:1008A0006878002830D029462C469646FF27A36951
:1008B0001868C0F3076000F08000C0B2002814BFC1
:1008C0004FF0904000201860C3F810E09F606B78F4
:1008D000013204349342EAD8B3B100221746FF2410
:1008E0004B6D1868C0F3076000F08000C0B20028AC
:1008F00014BF4FF09040002018601F619C606B781F
:10090000013204319342EBD8306940F48073336193
:10091000EA78012A07D102F58171C0F20101402075
:1009200060F3594131632846FFF77AFF0020F8BD94
:100930001668E868A02780244FF4001167F30F03BE
:1009400046F00306166064F31F4364F30F014FF48F
:10095000907244628162C0F8043162F30F03C0F206
:1009600020034FF4A071C0F8083161F30F036FF357
:100970001F43C0F80C3184E703699868C0F3410154
:100980004B1E022B02D8024AD05C704703207047EE
:1009900058EE01080369826998681168C0F3410044
:1009A000022808D06FF30A0111605A6842F480717E
:1009B000596000207047032060F30A01F4E700BF8C
:1009C00070B44B780022012B24D00B7800EB830409
:1009D000012505FA03F3646D63F31F422368C3F333
:1009E000072505F08005EDB26DB98E68CD78C98810
:1009F00066F30A0365F3934361F3995343F080531D
:100A000043F4004121600069C3691A43C2610020B8
:100A100070BC70470C7800EB840503FA04F363F3B1
:100A20000F02AC69DAE700BF30B44A780023012A2C
:100A30001C4613D00A7800EB8201012505FA02F268
:100A4000496D62F31F4400696FF3CF330B60C369D4
:100A500023EA0404C461002030BC7047097800EB2D
:100A6000810502FA01F262F30F04A969EBE700BF06
:100A7000F0B44B78012B3ED00A784D6900EB82042C
:100A8000636D1C681A69EDB18F68EE19751EB5FBB0
:100A9000F7F5AE05B60D65F3DC4207FB06F666F327
:100AA00012021A61C378012B16D0CB78012B1CD00F
:100AB000097800EB810044F00444436D1C60002081
:100AC000F0BC70478D6865F31202012565F3DC42C6
:100AD0001A61C378012BE8D10A780B6900EB820216
:100AE000526D5361CB78012BE2D14A79002A67D04D
:100AF00044F00054DCE70E784A6900EB8605AD69E6
:100B00002E682C69002A56D08B68CF7802EB030C34
:100B10000CF1FF3C62F31204BCFBF3F363F3DC441F
:100B2000012F08BF67F35E742C61C478012C51D08B
:100B3000CB78012B47D052B103690C785D6B01274C
:100B400007FA04F42C435C63CB78012B3BD00C7880
:100B500000EB840346F004469C692660CC78012CA7
:100B6000ADD1C578CB680978002DA8D192B200EB41
:100B70008100D11C8A10D0F8D000A0D053F8041BFB
:100B8000551E0433012A016005F00105214696D067
:100B900035B153F8044C022104338A4204608ED0EC
:100BA00053F8044C046053F8044B023104338A4276
:100BB0000460F5D183E762F3120463F3DC44B3E726
:100BC00044F0805474E70469A368DC0509D446F056
:100BD0000056BCE70C780B6900EB8404A4696361E0
:100BE000B2E746F08056B2E7F0B44B78012B82B002
:100BF0002DD00C784A6900EB84056B6D1D681E6969
:100C00000096F2B18E689DF800409DF802204E617A
:100C100066F30604012666F3C4028DF800408DF8E1
:100C20000220009A1A61C378012B3FD0097800EBAB
:100C3000810045F00442436D1A60002002B0F0BC10
:100C400070479DF800409DF802208E68E0E78269B9
:100C50004C69166815690095002C2ED08B689C4253
:100C60003FD99DF800404B6163F306048DF80040C6
:100C70009DF80230012464F3C4038DF80230009B18
:100C80001361C378012B25D046F004431360C2786A
:100C9000002AD2D14B69002BCFD003690A78596B57
:100CA000012000FA02F20A435A63C6E70A780B6988
:100CB00000EB8202526D5361B8E79DF800709DF819
:100CC000025064F3060763F3C4058DF800708DF8D5
:100CD0000250D4E70C780B6900EB8404A4696361CB
:100CE000D2E79DF8003064F306038DF80030BFE7CB
:100CF0004B780978012B00EB810006D0436D1A6810
:100D000042F4001119600020704780690368C3F342
:100D1000076202F08001CAB20AB143F0804343F493
:100D200000110160002070474B78012B0B78C978C7
:100D300000EB83000CBF8269426D1368881E6FF35D
:100D40005553012898BF43F080531360002070472B
:100D500003699A69D8691040000C704700EB810163
:100D600002694B6D9968506908407047036998693A
:100D7000D969084080B2704782B00122002362F333
:100D8000C40300210091C0228DF8023018238DF891
:100D900003208DF80030416D009A0A61C378012B61
:100DA00006D100F5B96048610A684FF080220A60F8
:100DB00002B07047D0F8143110B50446D3B10069C1
:100DC0008268D20716D5A17A41B1D4F80C31D4F893
:100DD0000C216FF341036FF300031360416841F08E
:100DE000010343600520FFF74FFA2069426822F0B3
:100DF0000101416010BD00BF837A63B101698A6857
:100E0000D10708D5D0F80C31D0F80C016FF34103AD
:100E10006FF300030360704738B54378012205463D
:100E200080F812215BB103460022FF219C69A1607A
:100E3000586D81606C78013204339442F6D8296988
:100E400000224FF0FF330A6128464A61CA618B6174
:100E5000FFF784FC28461021BDE83840FFF752BC5C
:100E60004B780978012B00EB810014D0426D136898
:100E7000C3F3074101F02000C2B24AB901F00203F6
:100E8000D9B200290CBF4FF440504FF400507047C6
:100E90004FF48050704780690268C2F3074101F047
:100EA0002003D8B238B901F00202D1B200290CBF38
:100EB0003020202070471020704700BF70B44D785C
:100EC0000E78012D0C4600EB860312D05D6D2B6869
:100ED000B2F5805F1E4616D0B2F5005F10D0B2F5B5
:100EE000405F15D012B962F3CF3633462B6070BC29
:100EF00070479D692B68102A1E4619D0202A05D1FB
:100F000043F00063F2E743F40013EFE7302AE9D13E
:100F1000C3F3074202F02002D2B222B943F080604C
:100F200040F08023E2E70023637170BCFFF7FCBE52
:100F300070BCFFF7DDBE00BF70B50446FFF762FA74
:100F400062780126002384F8126184F813313AB3E1
:100F50001946402503EB8300C20002F58C7022186D
:100F60002354D3805670D1709560D1605161607800
:100F700001339842EED898B100231946402503EB7F
:100F80008302D00000F55C7022182354D380517086
:100F9000D1709560D1605161607801339842EED88C
:100FA0002046FFF7A7FB2046FFF724FB0021204641
:100FB000FFF7FCFB2046FFF755FC2046BDE87040DC
:100FC000FFF790BB38B501F07F0404EB8405ED001A
:100FD00009060FD405F55C754119445500244C7081
:100FE0008A60CB70022B01D100230B71FFF7E8FC64
:100FF000002038BD05F58C754119445501254D700B
:101000008A60CB70CC80EDE708B501F07F03CAB2EF
:1010100003EB830100EBC10112F0800F14BF01F557
:101020008C7101F55C71D2090B704A70FFF7FCFC02
:10103000002008BD70B501F07F0404EB8406F100C8
:1010400001F55C76811900258455CA604B618D617C
:101050004D70C378012B08BF0A611CB1FFF708FD72
:10106000002070BDFFF7C0FD002070BDF8B501F095
:101070007F0404EB8405E90001F58C754119012713
:10108000CA600A61002206464F7044558A614B616E
:101090001CB1FFF7EDFC0020F8BDFFF7A5FD002017
:1010A000F8BD00BFCAB2130610B511D401EB81031D
:1010B00000EBC30404F55C7301F07F01D209012445
:1010C00019709C705A701946FFF712FE002010BD6F
:1010D00001F07F0101EB810400EBC40303F58C7385
:1010E000ECE700BFCAB210B5140611D401EB8103BE
:1010F00000EBC30404F55C7301F07F010024D20906
:1011000019709C705A701946FFF70EFE204610BDEC
:1011100001F07F0101EB810400EBC40303F58C7344
:10112000ECE700BF08B50B0603D4FFF717FB002060
:1011300008BD01F07F01FFF7E5FA002008BD00BF00
:1011400003690022186861F30A1202431A607047AB
:1011500003695A6803206FF341025A60FFF794B89D
:1011600003695A6842F0020058600320FFF78CB808
:101170000A0607D401EB810100EBC10202F55C71A4
:10118000FFF76EBE01F07F0303EB830100EBC102AA
:1011900002F58C71F4E700BF0B0607D401EB810167
:1011A00000EBC10303F55C71FFF788BE01F07F011E
:1011B00001EB810300EBC30101F58C71F4E700BF83
:1011C0002DE9F04F85B00546FFF70CFB18B900205C
:1011D00005B0BDE8F08F2846FFF712FB019000280C
:1011E000F5D0C0F3074808F00800C0B2002840F06E
:1011F000CF8008F004085FFA88F2002A5BD10199D9
:10120000CCB204F00202D3B213B1EE6802217161D4
:10121000019AC2F3076303F08006F1B2002940F09F
:10122000CB81019BC3F3072606F00802D1B2002947
:1012300040F09F8104F00802D3B2002B40F08F8170
:1012400004F01004E1B2002940F0638106F01003BD
:10125000D9B2002940F0258106F02006F6B2002E12
:1012600040F00681019AC2F3074404F01003D9B29A
:10127000002940F0F28004F02004E2B2002A40F09D
:10128000E180019BC3F3076101F04004E2B2002A50
:1012900040F0CD80019C04F00403D9B2002997D01E
:1012A000EB685C6804F00400C2B2002A40F02E82B1
:1012B0005C6001208CE72846FFF758FD07460028B0
:1012C00064D02E464FF0000934E003F00400C2B2AF
:1012D00012B1B4690423A36003F00801C8B210B1CD
:1012E000B2690823936003F01004E1B211B1B06950
:1012F0001023836003F02002D4B214B1B16920231B
:101300008B6003F04000C2B212B1B4694023A36005
:1013100003F00201C8B210B1B2690223936003F076
:101320008004E1B2002940F07F8104367F0809F192
:1013300001092BD0F807F8D52A695FFA89F81069F6
:10134000536B05EB880123FA08F48969E3018C6883
:10135000D9B201432140CBB2D907B6D540F29000B3
:10136000C2F20000536B0168012404FA09F023EA79
:1013700000035363B3694A689C602846414690471E
:10138000EC78012C00F0A98101239EE7012036E7CB
:101390002846FFF7DDFC0446002846D0DFF8D0924F
:1013A000AB462E46002705E00137043664080BF1F2
:1013B000280B3AD0E207F7D55FFA87FA284651465C
:1013C000FFF7CCFCC0B2C30713D5736D0121996040
:1013D000EA788A4200F09181D9F8003051462846D7
:1013E0001A68904795F803A0BAF1010F00F07E81CA
:1013F000012000F00201CBB213B1726D02209060A7
:1014000000F00401CBB213B1726D0420906000F0C3
:101410000801CBB2002BC7D0D9F80020284691682C
:101420008847706D08238360BEE70120E1E690489D
:1014300003682846596A8847EC684FF08042626129
:10144000012027E78A4B196828460C6AA047E868FC
:101450004FF400124261012013E7854802682846D4
:10146000D3699847E9684FF480104861012002E78A
:101470002846FFF78FFAEC682846E468FFF77CFA05
:10148000032800F0C880012040230522A870AB800B
:1014900062F38D24E968CC604FF4005401204C6164
:1014A000E0E62C696068002720F0010262602846AF
:1014B0003946FFF727F96B785BB12B463A46FF2494
:1014C00099698C60586D84606978013204338A426E
:1014D000F6D30124296964F30F072F234FF0FF305F
:1014E0000F2264F31F478861CF614A610B610A686C
:1014F0006FF30A120A602846FFF73EFC5C49E86871
:101500000B684FF48052426119692846884720468B
:10151000A2E6EB689F6927F010029A611C6A04F04A
:101520000F0000EB8001C4F3434205EBC107022A20
:1015300007F55C775BD0062A0BD105F5B961284623
:101540000822FEF737FFB869EB68C4F30A140119E3
:10155000B961986940F010029A61012076E644482A
:1015600001682846CA689047EB6808205861012046
:1015700066E63F48036828465A6990472969E86843
:1015800089684FF400634361AA7A9AB1CB0711D5F9
:10159000D5F80C01016841F00103036001684FF4C4
:1015A0006D42CEF2000241F003030360106940F087
:1015B0000601116101203DE6A87A40B1D5F80C3151
:1015C000D5F80C216FF341036FF3000313602E690C
:1015D00027487168036821F00102726028469E69FD
:1015E000B047E9684FF000404861012019E647F62E
:1015F000F0722240002AACD0C4F30A142246F968E3
:101600002846FEF7D7FEF868BA69EB680119141985
:10161000F960BC619DE700214FF400700923A970B7
:10162000A88063F38D2435E709EB8900C20002F539
:101630008C73EC18B1696269A0690293A368D1F850
:1016400018A0C0EB020C9C4534BFE3469B460BF14F
:10165000030B1FFA8AFABAEB9B0F38D9824236D9AC
:10166000002A34D0E16803971A46E2460CE000BF36
:1016700090000020B06987691FFA87FEF34529D2E0
:1016800042B3C3EB020AA268524538BF92461FFA22
:101690008AF342462846FEF763FEA069E168626964
:1016A0000AEB00030AF10307514493424FEA970BF8
:1016B000E160A361DED3029C2B692A5D596B039F15
:1016C000012000FA02F421EA04025A63B16980237E
:1016D0008B602AE6039F0146F9E7B9F1000F03D1B9
:1016E00095F8111104291CD02346EEE51FB995F891
:1016F0001101052811D050467BE61869DBF87833D4
:10170000C0F312015A1ACBF8882365E6074B196813
:1017100028468A6A9047EB68CAE52846FFF72CFB03
:10172000E9E72846FFF728FBDEE700BF900000202E
:1017300010B5074C2068FF2807D0064B064A9B6867
:10174000064912689847FF202060002010BD00BFA6
:10175000000000207C000020FC0A002094F2002001
:1017600043230B80004870470400002038B51F4C0D
:1017700063685A1C052B626001D0002038BD217AB5
:10178000002301296360F8D0E1682569B1F5006F95
:1017900023D0A94226D015D88AB26D1A6561D0F837
:1017A000EC35B3F83930AB4211D2C918ED1AE1600B
:1017B00065610F4D8121AA1801252572FFF756FC9E
:1017C000002038BDC1F5006565618AB2E7E70023F6
:1017D00049196361E160ABB2EBE7E36015B11A460A
:1017E0001946DAE700202072C7E700BFFC0A002094
:1017F0009CF2002038B501EB810140F27C030546E4
:10180000C2F2000300EBC1004FF25424C2F2000404
:10181000B0F888131A6920469047D5F8EC35284669
:1018200001212246B3F84030FFF704FC002038BD08
:1018300070B50B7813F060050C46064611D14A7856
:101840000A2A24D00B2A35D0062A1ED14988080A34
:10185000212841D02A463046224900F0B1FB002021
:1018600070BD202D03D000F029FC022070BDCD8872
:10187000002D25D01B0610D44A781B4B1B491A603B
:101880001B4B2A461D6000F0B5FB002070BD1949B6
:10189000012200F095FB284670BD17481349836864
:1018A00060782A46984730461049E28800F088FB65
:1018B000002070BD8B785BB90D4A1846936170BDEE
:1018C00048780D492A468B6829469847284670BDB6
:1018D00000F0F4FB284670BDE2883A2A28BF3A227D
:1018E000B9E700BF160000200000002094F200209D
:1018F000FC0A0020140B00207C00002010B5812180
:101900000446FFF781FB01212046FFF77DFB822182
:101910002046FFF779FB40F27C03C2F200035868CF
:101920008047002010BD00BFD0F8EC2538B5044634
:1019300081210223B2F83920FFF744FBD4F8EC35BB
:101940000121B3F8402020460223FFF73BFB822110
:10195000082203232046FFF735FB40F2C00040F287
:101960007C02C2F20000C2F20002022100251368CC
:10197000017145719847D4F8EC354FF25422204656
:101980000121C2F20002B3F84030FFF753FB2846B2
:1019900038BD00BF38B512490B7A012B01D00020A9
:1019A00038BD4B69CBB1D0F8EC25B2F83940CA68E4
:1019B000A3420BD8D418CC60002492B24C61094CDD
:1019C0008121A218FFF752FB002038BD1B1BA51870
:1019D0004B6192B2CD602346F1E70B72002038BD17
:1019E000FC0A00209CF200204FF628314FF62432EA
:1019F0004FF69C23C2F20001C2F20002C2F20003C1
:101A00000020086010601870704700BF0020704709
:101A10002DE9F001002937D01D4A1E4D14680346F8
:101A200004F1010C13F8018B40F2FF7741180026F6
:101A3000C043BC4588BFB44640188B42C2F800C0C2
:101A400005F80480944600F001001DD020B1106814
:101A500013F8018B441C0EE0146813F8018B601C12
:101A6000B84288BF3046CCF8000005F80480106802
:101A700013F8018B441CBC4288BF34468B4205F8E6
:101A80000080CCF80040E7D10020BDE8F0017047AD
:101A90000C0B00209CF200202DE9F001002944D01D
:101AA0002A4C2B4B22681E68013202F07F02B242A0
:101AB000226013D0C54341186B18DB07254FDFF8B0
:101AC00098C029D510F8015B0D2D39D02368BD547D
:101AD0005A1C02F07F02B24222601DD1022025E092
:101AE0009CF80080BD5408F101088B428CF80080FE
:101AF0001BD02268531C03F07F03B3422360EDD058
:101B0000226810F8015B01320D2D02F07F0210D027
:101B1000B242FD542260E1D0034613F8015B0D2D63
:101B20001846DDD08B42BD54E3D10020BDE8F00162
:101B300070479CF8008008F101088CF80080E7E706
:101B40009CF8003001338CF80030BFE728FB002000
:101B500024FB0020A0FA00209CFA00202028F0B4EA
:101B600014D021280FD1144B1A680A701868020A81
:101B70004A7058888870DA78CA70187908715A796A
:101B80004A719B798B710020F0BC70478F784E783A
:101B90000D78CC7891F804C048798A79064B3904DD
:101BA00041EA0621294341EA046183F804C019602F
:101BB00058719A71E7E700BF74000020074B1A685C
:101BC00010B4511C064CB1F5006FA05403D3002093
:101BD000186010BC70471960FBE700BF0C0B0020B9
:101BE0009CF200202DE9F001164F3B788446002B33
:101BF00023D0154C154D23682A689A421FD0144EE5
:101C00000020A046591C01F07F032360F25C1F2ACC
:101C100005D90CF800200130D8F8003080B22968CE
:101C2000994201D00D2AEDD100220CF800203B781A
:101C3000591E3970BDE8F00170471846FAE70020D8
:101C40003870F7E79CFA002024FB002028FB0020D6
:101C5000A0FA0020084B09491A680868904207D08A
:101C6000013202F07F011960054B585C00B27047E9
:101C70004FF6FF70FAE700BF24FB002028FB00208E
:101C8000A0FA0020D0F8E43510B504461869804762
:101C9000032184F81211002010BD00BF08B50422F2
:101CA000D0F8E43580F81221D8688047002008BDBC
:101CB00008B5D0F8E035D96901B18847002008BDE2
:101CC00008B5D0F8E035196A8847002008BD00BF84
:101CD00008B5D0F8E035596A8847002008BD00BF34
:101CE00008B5D0F8E43558698047002008BD00BF2A
:101CF000D0F8E43510B5044698698047D4F8E0156B
:101D000020464A6800219047002010BD002110B5F0
:101D10000B4604464022FFF755F98021402200235C
:101D20002046FFF74FF9D4F8E435A078012284F873
:101D3000122159688847002010BD00BF10B582B03D
:101D40006946044600F098F99DF8001001F01F0361
:101D5000012B0FD009D3022B11D0204601F08001B6
:101D6000FFF7A0F9002002B010BD2046694600F040
:101D700041FAF7E72046694600F022FAF2E72046EA
:101D8000694600F0B1F9EDE770B5044629B990F85D
:101D90001131022B0CD0002070BDD0F8E0355B690A
:101DA000002BF8D090F81221032AF4D19847F2E7DB
:101DB000D0F83421D0F820319A4211D9C078D4F823
:101DC00024110128C3EB020208BFC918C4F834214A
:101DD00008BFC4F82411204692B200F001F9DAE7F6
:101DE000D0F83851B5FBF3F603FB16565EB9AB429B
:101DF00009D8D0F83C21954205D2324600F0F0F8DF
:101E0000C4F83C61C7E7D4F8E005C16819B194F89B
:101E10001231032B03D0204600F016F9BBE7204611
:101E20008847F8E710B5044629B990F8111103293D
:101E30000CD0002010BDD0F8E0359B69002BF8D005
:101E400090F81221032AF4D19847F2E7D0F88C23B6
:101E5000D0F878339A4214D9C078D4F87C1301288A
:101E6000C3EB020208BFC918C4F88C2308BFC4F82A
:101E70007C139A4228BF1A46204692B200F0CAF854
:101E8000D7E7D0F8E0150B691BB190F81221032AAF
:101E900003D0204600F0C8F8CBE79847F9E700BF29
:101EA0002DE9F041069D044616461F468846FEF77A
:101EB0006BF920464146C4F8E075C4F8E455C4F80F
:101EC000E865FFF739F8D4F8E4351868804720460C
:101ED000BDE8F041FEF7A6B900207047D0F8E03524
:101EE00010B504461A689047D4F8E405816888471D
:101EF000002010BD08B5D0F8E0355A6890470020A2
:101F000008BD00BF122340F2C0000B80C2F20000E7
:101F1000704700BF04230B8000487047D4000020A6
:101F200010B54FF62C34C2F200044EF65C600A463F
:101F3000C0F60100214600F0D5FA204610BD00BFD2
:101F400010B54FF62C34C2F200044EF66C600A460F
:101F5000C0F60100214600F0C5FA204610BD00BFC2
:101F600010B54FF62C34C2F200044EF678600A46E3
:101F7000C0F60100214600F0B5FA204610BD00BFB2
:101F800010B54FF62C34C2F200044EF688600A46B3
:101F9000C0F60100214600F0A5FA204610BD00BFA2
:101FA00010B54FF62C34C2F200044EF69C600A467F
:101FB000C0F60100214600F095FA204610BD00BF92
:101FC00013460A46022110B5C0F83831C0F8343142
:101FD00080F8111100210446FFF748F8002010BDD9
:101FE00010B50C46134600212246FFF73FF80020AB
:101FF00010BD00BF13460A46032110B5C0F8903348
:10200000C0F88C3380F8111100210446FFF712F854
:10201000002010BD10B50C46134600212246FFF7E4
:1020200009F8002010BD00BF38B500210425044682
:102030000A460B4680F81151FFF718F82046FEF7C4
:102040009BFE002038BD00BF38B5002105250446A1
:102050000A460B4680F81151FEF7ECFF2046FEF7CA
:102060008BFE002038BD00BF01EB810100EBC100F9
:10207000B0F88803704700BF90F8C8350B7090F82F
:10208000C9254A7090F8CA3590F8CB2503EB022297
:102090004A8090F8CC3590F8CD2503EB02228A8057
:1020A00090F8CE3590F8CF2503EB022293B2CB8087
:1020B0000121C0F83C3180F81111704710B591F939
:1020C0000030002B044609DBC98839B10021FEF736
:1020D000E9FF2046BDE81040FEF74EBE20468021B5
:1020E000FEF7E0FFF5E700BF70B54B788A88012B5B
:1020F0000C460546D6B21CD003D3032B25D00020B6
:1021000070BD90F81231022B17D0032B23D1130688
:1021100046D406EB860600EBC60696F87203002846
:1021200048D1264A1060284624490222FFF748FF7A
:10213000E5E790F81231022B11D1002EDFD0802E6E
:10214000DDD03146FEF7AEFFD9E790F81221022A22
:10215000F3D0032A19D0FFF7B1FF002070BD032B85
:10216000F9D14A88002ACAD156B1802E08D031460A
:10217000FEF7B8FFD5F8E01528468B68214698474A
:102180002846FFF751FF002070BD49880029F1D192
:10219000002EEFD0802EEDD03146FEF783FFE9E729
:1021A00002F07F0202EB820100EBC10393F81A01F7
:1021B0000028B6D0014901200860B4E7180B0020C0
:1021C00038B590F81231032B04460D4603D0FFF7C3
:1021D00075FF002038BD0A79012AF8D8D0F8E0351B
:1021E0009A689047E8880028F3D12046FFF71CFF43
:1021F000EFE700BF70B54B7882B00C460546092B5F
:1022000011D8DFE803F0384A105F107694100517F4
:10221000E288012A07D190F81211022900F03381D7
:10222000032900F0D88028462146FFF747FF002009
:1022300002B070BDA178A84E01293171F3D890F891
:102240001201022800F023810328ECD1002900F0BC
:10225000378195F81011012900F0C7802846FFF753
:1022600049FE3179284685F81011FFF737FE2846D8
:10227000FFF7DAFEDBE790F81221911E0129D2D890
:10228000D0F81401002869D1934B0122DA60284666
:1022900092490122FFF794FEC9E790F81201831ECC
:1022A000012BC0D86288012AC1D1D5F8E0150020E1
:1022B0008B68C5F814012846214698472846FFF741
:1022C000B3FEB4E76388012B00F0F480022BAED19B
:1022D000A28812F0FF0FAAD10169140A4A68631E8E
:1022E0001046042B00F28080DFE803F0838D889293
:1022F0007A00A188002996D1E088002893D16688C9
:1023000095F8122106F07F03032A1E468BD028463B
:1023100085F813311946FEF713FF2846FFF784FEB0
:10232000002E00F0C380022085F812017FE760884C
:10233000020A531E062B3FF676AF01A151F823F097
:10234000B52300087723000865230008272200082A
:102350002722000827220008272200085E490320C0
:10236000C86094E7C1B205293FF65DAFDFE801F030
:10237000827970675E55D5F8E035A8789A6A0DF1D4
:1023800006019047014602204870C5F8EC15BDF8DB
:102390000630002B3FF44BAFE288002A3FF447AFF2
:1023A000934228BF134628461A46ADF80630FFF779
:1023B00007FE3CE7D5F8E815A8780B680DF1060193
:1023C0009847E288402A014603D095F81201012877
:1023D000DDD10823E1E700F58871FFF7F1FD26E77D
:1023E000052262F3061002464A602846FFF71CFEEB
:1023F0001DE7012464F306100246F5E7032363F3A7
:1024000006100246F0E7022262F306100246EBE7EE
:10241000042464F306100246E6E7D5F8E825A87818
:1024200093690DF1060198470146B0E7D5F8E81524
:10243000A8784A690DF1060190470146A7E7D5F84B
:10244000E835A8781A690DF10601904701469EE724
:10245000D5F8E815A878CB680DF106019847014634
:1024600095E7D5F8E825A87893680DF10601984717
:1024700001468CE7D5F8E815A8784A680DF1060101
:102480009047014683E71649FFF79AFDCFE60029FA
:10249000ABD00121032385F8101185F812312846AD
:1024A000FFF71CFD2846FFF7BFFDC0E6012185F8B8
:1024B0001211BCE6D0F8E015C0F814318B68FAE6CA
:1024C000022285F8122185F810112846FFF712FD27
:1024D0002846FFF7A9FDAAE6180B0020240B0020D0
:1024E000200B002030B4F0B10378F3B10446002390
:1024F00014F8015F0133DBB2002DF9D15C00A31C9D
:10250000DCB2138003220C704A7002785AB10223A5
:1025100000255C1CE4B2CA540D5510F8012F02339B
:10252000DBB2002AF5D130BC704702242346E8E72D
:102530004FF62033C2F2000301221A70704700BF29
:102540004FF62033C2F2000301221A70704700BF19
:102550004FF62033C2F2000302221A70704700BF08
:102560004FF62033C2F2000301221A70704700BFF9
:102570004FF62033C2F2000301221A70704700BFE9
:102580004FF62033C2F2000301221A70704700BFD9
:102590004FF62033C2F2000301221A70704700BFC9
:1025A00030B540F2001383B0C2F200034FF620347E
:1025B0000125C2F2000400934FF6603040F2E402BD
:1025C00040F24803C2F200002946C2F20002C2F201
:1025D00000032570FFF764FC03B030BD4FF62033D5
:1025E000C2F200031878704738B51A4B1A78022ADD
:1025F00004460D4601D0002038BD007828B1FFF711
:10260000DDFA14F8010F0028F9D1012D0CD0022DAC
:1026100012D0032D18D0042D01D0012038BD0D207B
:10262000FFF7CCFA012038BD0A20FFF7C7FA0D20CA
:10263000FFF7C4FA284638BD0D20FFF7BFFA0A207D
:10264000FFF7BCFA012038BD0A20FFF7B7FA0120D6
:1026500038BD00BF20FB002038B5074B1C78022C8A
:10266000054601D0002038BDFFF7BCFA08B120466E
:1026700038BD2870012038BD20FB0020B0F5E06F88
:1026800010B504460FD0B0F5C06F0CD0B0F5A06FF8
:1026900009D0B0F5806F06D0B0F5407F03D0074871
:1026A00073210EF053FF4FF46D4344F0BF60CEF240
:1026B000000340F40034DC6010BD00BFB4EE01083C
:1026C00038B5C378012B044603D9294887210EF079
:1026D0003DFF60780F2845D8A1780F293DD8E278D2
:1026E00072B920784FF46143410900F01F02CEF225
:1026F00000032031012000FA02F243F8212038BD06
:102700004FF46D43CEF200036578D968A078237842
:10271000CA43C2F30222C2F10401C9B205FA01F1AF
:102720000F2545FA02F2C9B2024041EA020003F164
:10273000604303F561410201D0B281F800032278C1
:102740004FF461435109CEF2000302F01F02012051
:1027500000FA02F243F8212038BD054889210EF025
:10276000F5FEBCE7024888210EF0F0FEB4E700BF9A
:10277000B4EE0108B0F1005F38B504460D4606D04E
:10278000B0F1006F03D00C48B1210EF0DFFE4FF620
:10279000FE73C0F20F039D4203D90748B2210EF029
:1027A000D5FE25F060404FF46D4120F07F05CEF25C
:1027B00000012C438C6038BDB4EE0108102838B5F8
:1027C00004460D4607D0042805D0022803D00E4841
:1027D000C4210EF0BBFE012D0BD90B48C5210EF014
:1027E000B5FE4FF46D40CEF2000001690C43046168
:1027F00038BD002DF5D14FF46D43CEF200031A69B8
:1028000022EA04041C6138BDB4EE0108042808B5AE
:102810000ED0053003D00B48DC210EF097FE4EF2AF
:102820001001CEF200010B6823F004020A6008BD1B
:102830004EF21003CEF200031A6842F00400186052
:1028400008BD00BFB4EE010808B501214FF4807047
:1028500005F062FF4FF480700021BDE8084005F0EC
:102860005BBF00BFF8B54FF40053C4F201039842B8
:1028700005460C460FD04FF40450C4F201008542C7
:1028800009D04FF40851C4F201018D4203D04D48E4
:10289000E9210EF05BFE226862B1B2F1807F09D0BF
:1028A000B2F1007F06D0B2F1407F03D04548EA2163
:1028B0000EF04CFE2679012E03D94248EB210EF092
:1028C00045FE6779012F03D93E48EC210EF03EFE0C
:1028D000A36863B1B3F1805F09D0B3F1005F06D0A4
:1028E000B3F1405F03D03748ED210EF02FFEE068D2
:1028F00080B3B0F1807F2DD0B0F1007F2AD0B0F14D
:10290000407F27D0B0F1806F24D0B0F1A06F21D0EC
:10291000B0F1C06F1ED0B0F1E06F1BD0B0F1006F0E
:1029200018D0B0F1106F15D0B0F1206F12D0B0F107
:10293000306F0FD0B0F1406F0CD0B0F1506F09D0B4
:10294000B0F1606F06D0B0F1706F03D01D48EE217A
:102950000EF0FCFD216931B1B1F5006F03D01948CB
:10296000EF210EF0F3FD227D561E0F2E03D91548E0
:10297000F0210EF0EBFD6A6826682379E068216992
:10298000677922F0407C2CF48072164346EA0323D8
:102990006B60AE6801434FF2FD73A068CCF2FF0399
:1029A00041EA00023340134343EA4701A960207D16
:1029B000EA6A431E22F47001D8B241EA0052EA6288
:1029C000F8BD00BFE0EE01080023012103600371A0
:1029D00043718360C3600361017570470368022B14
:1029E00070B5044618D9052B16D0062B14D0072B2A
:1029F00012D0092B10D0112B0ED0122B0CD0152B6E
:102A00000AD0162B08D0172B06D0192B04D0384823
:102A10004FF4A9710EF09AFD606868B1B0F5803F7F
:102A20000AD0B0F5003F07D0B0F5403F04D03048A1
:102A300040F253110EF08AFDA16869B1B1F5804FE3
:102A40000AD0B1F5004F07D0B1F5404F04D0284867
:102A50004FF4AA710EF07AFDE36893B3B3F5807F6B
:102A60002FD0B3F5007F2CD0B3F5407F29D0B3F53C
:102A7000806F26D0B3F5A06F23D0B3F5C06F20D000
:102A8000B3F5E06F1DD0B3F5006F1AD0B3F5106F3A
:102A90002AD0B3F5206F14D0B3F5306F11D0B3F551
:102AA000406F0ED0B3F5506F0BD0B3F5606F08D008
:102AB000B3F5706F05D00E4840F255110EF046FD8B
:102AC000E3684FF40C5194E84100C4F20101A4689A
:102AD0004D6843F2E0023043CFF6FC7220432A40B7
:102AE000024313434B6070BD4FF41063E9E700BF2E
:102AF000E0EE01080023036043608360C360704719
:102B000038B54FF40053C4F20103984204460D4611
:102B100010D04FF40450C4F2010084420AD04FF4A4
:102B20000851C4F201018C4204D00C4840F28B11D0
:102B30000EF00CFD012D09D908484FF4C6710EF0B6
:102B400005FDA06840F00101A16038BD002DF8D15D
:102B5000A26822F00103A36038BD00BFE0EE0108C7
:102B600038B54FF40053C4F20103984205460C46B1
:102B700010D04FF40450C4F2010085420AD04FF443
:102B80000851C4F201018D4204D017484FF4E3719B
:102B90000EF0DCFC4FF40072C0F28002944215D0BB
:102BA0004FF40073C0F240039C420FD04FF400700A
:102BB000C0F2C000844209D0B4F5000F06D0B4F5CD
:102BC000800F03D0B4F5400F00D03CB9696821F400
:102BD000400222F400731C436C6038BD024840F28E
:102BE000C7110EF0B3FCF1E7E0EE01084FF400531B
:102BF000C4F20103984270B504460D46164610D043
:102C00004FF40450C4F2010084420AD04FF408513A
:102C1000C4F201018C4204D00C4840F2E3110EF0E2
:102C200095FCB5F5805F0AD2B6F5805F04D30748FE
:102C300040F2E5110EF08AFC6562A66270BD0348A1
:102C40004FF4F2710EF082FCEEE700BFE0EE0108F7
:102C500038B54FF40053C4F20103984204460D46C0
:102C600010D04FF40450C4F2010084420AD04FF453
:102C70000851C4F201018C4204D009484FF4037199
:102C80000EF064FC122D04D9054840F20D210EF01F
:102C90005DFC626822F01F031D43656038BD00BF04
:102CA000E0EE0108012808B50DD90C484FF4137166
:102CB0000EF04CFC4FF40C51C4F201014B6843F48C
:102CC00000024A6008BD0028F4D14FF40C53C4F24E
:102CD00001035A6822F40000586008BDE0EE0108C4
:102CE000012808B50DD90C4840F262210EF02EFCE7
:102CF0004FF40C51C4F201014B6843F480024A6066
:102D000008BD0028F4D14FF40C53C4F201035A68F3
:102D100022F48000586008BDE0EE01082DE9F04182
:102D20004FF40057C4F20107B84204460D46164658
:102D3000984610D04FF40453C4F2010398420AD0CD
:102D40004FF40850C4F20100844204D037484FF4D5
:102D500032710EF0FBFB122D62D8771EF9B20F29EB
:102D600058D8B8F1070F4FD8092D21D905EB4503E5
:102D70001E3BE168072202FA03F221EA020008FA88
:102D800003F840EA0803062EE36020D90C2E06EB78
:102D900086062BD9413EE16A1F2202FA06F221EA99
:102DA000020005FA06F540EA0506E662BDE8F08194
:102DB000206905EB4503072202FA03F220EA02012B
:102DC00008FA03F841EA0800062E2061DED807EB76
:102DD0008707606B1F2101FA07F120EA010305FA5A
:102DE00007F243EA02076763BDE8F081216B233EE7
:102DF0001F2303FA06F321EA030205FA06F642EA64
:102E000006052563BDE8F081084840F2CB210EF0AD
:102E10009DFBA9E7054840F2CA210EF097FBA0E709
:102E2000024840F2C9210EF091FB96E7E0EE01085E
:102E30004FF40053C4F20103984210B5044610D079
:102E40004FF40450C4F2010084420AD04FF40851F8
:102E5000C4F201018C4204D0044840F23F310EF02C
:102E600075FBA26842F08043A36010BDE0EE01084C
:102E70004FF40053C4F20103984210B5044610D039
:102E80004FF40450C4F2010084420AD04FF40851B8
:102E9000C4F201018C4204D0044840F24E310EF0DD
:102EA00055FBA268C2F3805010BD00BFE0EE0108E0
:102EB00038B54FF40053C4F20103984204460D465E
:102EC00010D04FF40450C4F2010084420AD04FF4F1
:102ED0000851C4F201018C4204D00C4840F26B311D
:102EE0000EF034FB012D09D908484FF45B710EF048
:102EF0002DFBA06840F48061A16038BD002DF8D1A1
:102F0000A26822F48063A36038BD00BFE0EE010830
:102F100038B54FF40053C4F20103984204460D46FD
:102F200010D04FF40450C4F2010084420AD04FF490
:102F30000851C4F201018C4204D00C484FF4617175
:102F40000EF004FB012D09D9084840F285310EF03E
:102F5000FDFAA06840F00201A16038BD002DF8D153
:102F6000A26822F00203A36038BD00BFE0EE0108B2
:102F700038B54FF40053C4F20103984204460D469D
:102F800010D04FF40450C4F2010084420AD04FF430
:102F90000851C4F201018C4204D00A4840F2A13128
:102FA0000EF0D4FA013DEAB2072A04D9054840F2EE
:102FB000A2310EF0CBFA636823F4604040EA453555
:102FC000656038BDE0EE010838B54FF40053C4F237
:102FD0000103984204460D4610D04FF40450C4F249
:102FE000010084420AD04FF40851C4F201018C421E
:102FF00004D00C4840F2BE310EF0A8FA012D09D9D8
:10300000084840F2BF310EF0A1FA606840F4006158
:10301000616038BD002DF8D1626822F400636360FE
:1030200038BD00BFE0EE01084FF40053C4F20103C5
:10303000984210B5044610D04FF40450C4F2010079
:1030400084420AD04FF40851C4F201018C4204D0EA
:10305000034840F2D5310EF079FAE26C90B210BD1F
:10306000E0EE010842F20833C4F201031868704729
:1030700038B54FF40053C4F20103984204460D469C
:1030800010D04FF40450C4F2010084420AD04FF42F
:103090000851C4F201018C4204D00C4840F21B419B
:1030A0000EF054FA012D09D9084840F21C410EF0E7
:1030B0004DFAA06840F48071A16038BD002DF8D1B0
:1030C000A26822F48073A36038BD00BFE0EE01085F
:1030D00038B54FF40053C4F20103984204460D463C
:1030E00010D04FF40450C4F2010084420AD04FF4CF
:1030F0000851C4F201018C4204D00C4840F2334123
:103100000EF024FA012D09D9084840F234410EF09E
:103110001DFAA06840F40071A16038BD002DF8D1FF
:10312000A26822F40073A36038BD00BFE0EE01087E
:10313000012808B50DD90C4840F24E410EF006FAB0
:103140004FF40C51C4F201014B6843F400524A6041
:1031500008BD0028F4D14FF40C53C4F201035A689F
:1031600022F40050586008BDE0EE01082DE9F0415E
:103170004FF40056C4F20106B04204460D4617460D
:10318000984610D04FF40453C4F2010398420AD079
:103190004FF40850C4F20100844204D0274840F2A2
:1031A000A6410EF0D3F9122D42D8791E032939D841
:1031B000B8F1070F30D8092D1FD8206905EB45035A
:1031C000072202FA03F220EA020108FA03F841EAB0
:1031D00008002061A16BC1F30152BF1AB81CC3B231
:1031E00003EB83071F2202FA07F221EA020105FA24
:1031F00007F52943A163BDE8F08105EB45031E3BBC
:10320000E168072202FA03F221EA020008FA03F851
:1032100040EA0803E360DDE7084840F2A9410EF008
:1032200095F9C8E705484FF495610EF08FF9BFE7AF
:10323000024840F2A7410EF089F9B6E7E0EE010836
:1032400038B54FF40053C4F20103984204460D46CA
:1032500010D04FF40450C4F2010084420AD04FF45D
:103260000851C4F201018C4204D00A4840F2E64100
:103270000EF06CF9013DEAB2032A04D9054840F288
:10328000E7410EF063F9A36B23F4401040EA0555C3
:10329000A56338BDE0EE010870B54FF40053054654
:1032A00082B0C4F2010300209D4201900C461646F4
:1032B00010D04FF40451C4F201018D420AD04FF4F2
:1032C0000852C4F20102954204D011484FF4A161A2
:1032D0000EF03CF9142C0AD0182C08D01C2C06D067
:1032E000202C04D00A4840F209510EF02FF9B6F50F
:1032F000805F04D3064840F20A510EF027F9019589
:10330000019BE41801940198066002B070BD00BFF3
:10331000E0EE010838B54FF40053C4F201039842BF
:1033200005460C4610D04FF40450C4F2010085420B
:103330000AD04FF40851C4F201018D4204D01F4855
:1033400040F22E510EF002F98CB3B4F5803F2ED02E
:10335000B4F5003F2BD0B4F5403F28D0B4F5802F12
:1033600025D0B4F5A02F22D0B4F5C02F1FD0B4F5CE
:10337000E02F1CD0B4F5002F19D0B4F5102F16D0C3
:10338000B4F5202F13D0B4F5302F10D0B4F5402F62
:103390000DD0B4F5502F0AD0B4F5602F07D0B4F596
:1033A000702F04D0054840F22F510EF0CFF8AA68D4
:1033B00022F470231C43AC6038BD00BFE0EE01086E
:1033C00038B54FF40053C4F20103984204460D4649
:1033D00010D04FF40450C4F2010084420AD04FF4DC
:1033E0000851C4F201018C4204D00D484FF4AA6187
:1033F0000EF0ACF86DB1B5F5801F0AD0B5F5001F21
:1034000007D0B5F5401F04D0054840F251510EF0E9
:103410009DF8A26822F440131D43A56038BD00BF8B
:10342000E0EE01084FF40053C4F20103984210B5D6
:10343000044610D04FF40450C4F2010084420AD074
:103440004FF40851C4F201018C4204D0044840F208
:1034500064510EF07BF8A26842F48003A36010BDB3
:10346000E0EE01084FF40053C4F20103984210B596
:10347000044610D04FF40450C4F2010084420AD034
:103480004FF40851C4F201018C4204D0044840F2C8
:1034900072510EF05BF8A268C2F3805010BD00BFFD
:1034A000E0EE010838B54FF40053C4F2010398422E
:1034B00004460D4610D04FF40450C4F2010084427B
:1034C0000AD04FF40851C4F201018C4204D00C48D8
:1034D00040F28E510EF03AF8012D09D9084840F219
:1034E0008F510EF033F8606840F48061616038BD40
:1034F000002DF8D1626822F48063636038BD00BF9C
:10350000E0EE010838B54FF40053C4F201039842CD
:1035100004460D4610D04FF40450C4F2010084421A
:103520000AD04FF40851C4F201018C4204D00C4877
:103530004FF4B5610EF00AF8012D09D9084840F2A0
:10354000A9510EF003F8606840F48051616038BD05
:10355000002DF8D1626822F48053636038BD00BF4B
:10356000E0EE010830B54FF4005383B0C4F201031C
:1035700000229842054601920C4610D04FF40450A8
:10358000C4F2010085420AD04FF40851C4F201018F
:103590008D4204D00D4840F2C6510DF0D7FF142CD7
:1035A0000AD0182C08D01C2C06D0202C04D0074898
:1035B00040F2C7510DF0CAFF0195019B28331C1939
:1035C0000194019A106880B203B030BDE0EE0108AA
:1035D0004FF40053C4F20103984270B504460D46FF
:1035E000164610D04FF40450C4F2010084420AD0B1
:1035F0004FF40851C4F201018C4204D0164840F245
:1036000031610DF0A3FF012E04D9134840F232615D
:103610000DF09CFF40F2052295420FD0B5F5837F57
:103620000CD040F207439D4208D042F21A00854276
:1036300004D0094840F233610DF088FFEDB201215A
:1036400001FA05F562681EB922EA0505656070BDDC
:103650001543656070BD00BFE0EE010838B54FF45A
:103660000053C4F20103984205460C4610D04FF4B3
:103670000450C4F2010085420AD04FF40851C4F24C
:1036800001018D4204D00D4840F256610DF05EFFFD
:10369000621E012A0CD9042C0AD0082C08D0102C48
:1036A00006D0202C04D0054840F257610DF04EFFA3
:1036B0002B681C420CBF0020012038BDE0EE010841
:1036C00038B54FF40053C4F20103984204460D4646
:1036D00010D04FF40450C4F2010084420AD04FF4D9
:1036E0000851C4F201018C4204D008484FF4CF6164
:1036F0000DF02CFF15F0C00F00D125B9034840F2A2
:1037000079610DF023FFED43256038BDE0EE01083F
:1037100038B54FF40053C4F20103984205460C46F5
:1037200010D04FF40450C4F2010085420AD04FF487
:103730000851C4F201018D4204D013484FF4D26104
:103740000DF004FF40F2052294420FD0B4F5837FC0
:103750000CD040F207439C4208D042F21A00844247
:1037600004D0094840F291610DF0F0FE69682A68C2
:1037700012EA142007D00123E4B203FA04F40C4245
:103780000CBF0020012038BDE0EE010838B54FF431
:103790000053C4F20103984205460C4610D04FF482
:1037A0000450C4F2010085420AD04FF40851C4F21B
:1037B00001018D4204D00E4840F2B7610DF0C6FE03
:1037C00040F2052294420FD0B4F5837F0CD040F232
:1037D00007439C4208D042F21A00844204D00448B5
:1037E0004FF4D7610DF0B2FE6FEA14242C6038BD9F
:1037F000E0EE01084FF44053C4F2020301229A6044
:10380000704700BF4FF44053C4F2020318601868B9
:10381000704700BF10B4F1B1034600EB810153F8CB
:10382000042B4FF44054C4F20204081A04388B42AB
:103830002260C0F380020ED022B153F8040B8B42F9
:10384000206008D01A4652F8040B20605868131DF7
:103850008B422060F6D14FF44053C4F20203186843
:1038600010BC70474FF44053C4F20203186870470D
:103870004FF44053C4F20203187170474FF44053A1
:10388000C4F20203187970474FF40053CEF20403D8
:103890001868000C704700BF4FF40053CEF20403C9
:1038A00018680105080D704738B530F00703044665
:1038B0000D460ED168B1012D11D90E4852210DF0DF
:1038C00045FE4FF40050CEF2040041680C434460C2
:1038D00038BD512107480DF039FE012DEDD8002DDE
:1038E000EFD14FF40053CEF204035A6822EA0404E5
:1038F0005C6038BD14EF010838B54FF46243CFF671
:103900001F13034004460D4673B968B1012D11D948
:103910000E4879210DF01AFE4FF40051CEF2040149
:103920008B681C438C6038BD782108480DF00EFE72
:10393000012DEDD8002DEFD14FF40050CEF2040050
:10394000826822EA0404846038BD00BF14EF0108D5
:1039500038B520F4E023044623F003000D4670B987
:103960006CB1012D11D90E4896210DF0EFFD4FF4E9
:103970000053CEF20403D8680443DC6038BD9521BF
:1039800007480DF0E3FD012DEDD8002DEFD14FF4E8
:103990000051CEF20401CA6822EA0404CC6038BDAA
:1039A00014EF01080023C5F2050300221F211A604D
:1039B000DA6059619A61DA611A625A62704700BF2F
:1039C00003882DE9F04104462BB1022B03D0324885
:1039D00090210DF0BBFD608828B1102803D02E483F
:1039E00091210DF0B3FDA18829B1202903D02A48E7
:1039F00092210DF0ABFDE2882AB1802A03D026483F
:103A000093210DF0A3FD25892DB1402D03D022482F
:103A100094210DF09BFD66894EB1B6F5807F06D0EE
:103A2000B6F5007F03D01C4895210DF08FFDA789C6
:103A300077B1B7F5806F0BD0B7F5006F08D0B7F549
:103A4000406F05D0144896210DF080FDA68900E056
:103A50003E460023C5F20503B4F802C0D3F8008047
:103A60002288A788E188608925894CEA020228F427
:103A7000804424F001043A431C600A432A43196835
:103A80000243324321F47F6020F0020190B20843E8
:103A90001860BDE8F08100BF4CEF010800230380EF
:103AA00043808380C380038143818381704700BF4B
:103AB00030B441888488C28805880023C5F2050394
:103AC00041EA054042EA04411862596230BC70473D
:103AD000012808B50BD90B48DE210DF037FD002178
:103AE000C5F205010B6843F004020A6008BD002816
:103AF000F5D10023C5F205031A6822F0040018600E
:103B000008BD00BF4CEF010830B4827845780478D6
:103B1000C1781004002340EA05222243C5F20503C0
:103B200042EA0161996130BC704700BF012808B5C5
:103B30000CD90B484FF482710DF008FD0021C5F23D
:103B400005010B6843F008020A6008BD0028F5D1A2
:103B50000023C5F205031A6822F00800186008BDAA
:103B60004CEF0108012808B50CD90B484FF49571AA
:103B70000DF0ECFC0021C5F205010B6843F4804216
:103B80000A6008BD0028F5D10023C5F205031A68B4
:103B900022F48040186008BD4CEF0108012808B5E8
:103BA0000CD90B4840F241110DF0D0FC0021C5F2B8
:103BB00005010B6843F001020A6008BD0028F5D139
:103BC0000023C5F205031A6822F00100186008BD41
:103BD0004CEF01080023C5F20503986A704700BF47
:103BE00038B54FF6E073034004460D4673B968B12B
:103BF000012D12D90E4840F279110DF0A7FC0021D9
:103C0000C5F20501CB681C43CC6038BD08484FF4B1
:103C1000BC710DF09BFC012DECD8002DEFD10020E4
:103C2000C5F20500E443C268A4B21440C46038BDC4
:103C30004CEF0108A0F5005310B50446581E0128AA
:103C400023D942F204018C422DD0012C22D0022C27
:103C500020D0042C1ED0082C1CD0102C1AD041F2DD
:103C60000102944224D041F202039C4220D0981CCD
:103C700084421DD0011D8C421AD008318C4217D0CD
:103C80000E484FF4D0710DF061FC220B012A0FD0C9
:103C9000022A08D00023C5F20503186920420CBF90
:103CA0000020012010BD0021C5F205014868F5E79C
:103CB0000022C5F205029068F0E700BF4CEF010852
:103CC0004FF6E073034010B5044603B920B9054828
:103CD0004FF4E6710DF03AFC0020C5F20500446196
:103CE00010BD00BF4CEF0108431E012B10B5044668
:103CF0000AD9042808D0082806D0102804D007487C
:103D000040F2E5110DF022FC0020C5F2050001692A
:103D10000C420CBF0020012010BD00BF4CEF010879
:103D20000023C5F205035861704700BF46F2100337
:103D3000C4F20203984210B5044600F08E8046F2A9
:103D40002800C4F20200844200F09A8046F2400249
:103D5000C4F20202944200F0A78046F25801C4F275
:103D600002018C4200F0B48046F27003C4F20203F8
:103D70009C425DD046F28801C4F202018C4200F000
:103D8000BB8046F2A002C4F20202944200F0C1805D
:103D900046F2B803C4F202039C4200F0DE8046F211
:103DA0001041C4F202018C4200F0EB8046F228423E
:103DB000C4F20202944200F0B88046F24041C4F2DC
:103DC00002018C4200F0E18046F25842C4F2020245
:103DD000944200F0E28046F27042C4F20202944241
:103DE00000F0DF8046F28840C4F20200844200F016
:103DF000DC8046F2A041C4F202018C4200F0D9807E
:103E000046F2B842C4F20202944200F0C2806B480B
:103E1000BF210DF09BFB2068002120F0010221232F
:103E2000226021606160A160E1602161636110BD79
:103E300020684FF4C0423D21C4F20202002320F06A
:103E40000100C2F20001206023606360A360E360B0
:103E5000236121236361D16010BD00684FF4C0422B
:103E6000002320F00101C4F202022160212023601E
:103E70006360A360E36023613D236061936010BDD4
:103E800021684FF4C042002321F00100C4F2020275
:103E90002060212123606360A360E36023614FF40D
:103EA00074636161936010BD20684FF4C0420023C9
:103EB000C4F2020220F0010020602121236063602F
:103EC000A360E36023614FF474136161936010BDDC
:103ED00020684FF4C0420023C4F2020220F0010027
:103EE0002060212123606360A360E36023614FF0C1
:103EF00074636161936010BD20684FF4C0424FF459
:103F00007461C4F20202002320F00100C2F2000139
:103F100099E720684FF4C04200210B46C4F2020228
:103F200020F00100C2F23D018DE746F22843C4F2C1
:103F30000203002218684FF4C84120F00100186005
:103F4000C4F202011A605A609A60DA601A61212292
:103F50005A614FF474638B6010BD21684FF4C04008
:103F6000002321F00102C4F202002260212123601B
:103F70006360A360E36023614FF03D536161C36000
:103F800010BD20684FF4C8426AE720684FF4C84269
:103F90008DE721684FF4C840E2E720684FF4C8423B
:103FA00099E720684FF4C84245E720684FF4C842BB
:103FB000A5E720684FF4C842AEE700BF80EF0108D4
:103FC0002DE9F04F46F21003C4F20203984287B085
:103FD00005460C465ED046F22800C4F20200854237
:103FE00058D046F24001C4F202018D4252D046F24E
:103FF0005802C4F2020295424CD046F27006C4F256
:104000000206B54246D046F28807C4F20207BD4216
:1040100040D046F2A003C4F202039D423AD046F2D9
:10402000B800C4F20200854234D046F21041C4F216
:1040300002018D422ED046F22842C4F2020295427D
:1040400028D046F24046C4F20206B54222D046F2DB
:104050005847C4F20207BD421CD046F27043C4F276
:1040600002039D4216D046F28840C4F20200854207
:1040700010D046F2A041C4F202018D420AD046F2AD
:10408000B842C4F20202954204D07F484FF49E71B8
:104090000DF05CFA2668CEB1B6F1007F16D0B6F10D
:1040A000806F13D0B6F1C06F10D0B6F1006F0DD095
:1040B000B6F1206F0AD0B6F1406F07D0B6F1606F4D
:1040C00004D0714840F23D110DF040FAE76847B165
:1040D000402F06D0802F04D06B484FF49F710DF015
:1040E00035FA23694FF6FE71581E884200F2B380FC
:1040F0006269B2F5007F02D0002A40F0BE80A66956
:10410000B6F5806F02D0002E40F0B180E76957B15C
:10411000B7F5006F07D0B7F5805F04D05A484FF469
:10412000A1710DF013FA236A53B1B3F5005F07D004
:10413000B3F5804F04D0544840F243110DF006FA15
:10414000606A38B1B0F5807F04D04F484FF4A27157
:104150000DF0FCF9A16A69B1B1F5803F0AD0B1F563
:10416000003F07D0B1F5403F04D0474840F2451129
:104170000DF0ECF9E26A32B1042A04D042484FF45F
:10418000A3710DF0E3F9266B032E6AD8676B6FB14C
:10419000B7F5000F0AD0B7F1807F07D0B7F1C07F25
:1041A00004D039484FF4A4710DF0D0F9A36B83B15A
:1041B000B3F5001F0DD0B3F5800F0AD0B3F5C00FD3
:1041C00007D0314840F249110DF0C0F9D4F838C099
:1041D00000E09C46E069D4F80CB0D4F800A0D4F814
:1041E00014900390206BD4F8188005904BEA0A0ACB
:1041F0004AEA0900A16A636B276A666A019140EA8C
:10420000080903982A68049349EA000A4AEA07075A
:10421000019802923E43049FE16A22696368A468A0
:104220003043384348F23F09029FCFF21C0907EAA6
:10423000090940EA090646EA0C0028606869059EFB
:1042400020F007003143014369616A60AB60EC60B4
:1042500007B0BDE8F08F0C4840F23F110DF076F941
:1042600046E7094840F247110DF070F98EE706481D
:1042700040F241110DF06AF948E703484FF4A0718C
:104280000DF064F93BE700BF80EF010800230360F5
:1042900043608360C360036143618361C361036200
:1042A00043628362C362036343638363704700BFF7
:1042B00038B546F21003C4F20203984204460D4694
:1042C0005ED046F22800C4F20200844258D046F282
:1042D0004001C4F202018C4252D046F25802C4F2AC
:1042E000020294424CD046F27003C4F202039C4294
:1042F00046D046F28800C4F20200844240D046F222
:10430000A001C4F202018C423AD046F2B802C4F2D3
:104310000202944234D046F21043C4F202039C429B
:104320002ED046F22840C4F20200844228D046F241
:104330004041C4F202018C4222D046F25842C4F2FB
:10434000020294421CD046F27043C4F202039C4223
:1043500016D046F28840C4F20200844210D046F2E1
:10436000A041C4F202018C420AD046F2B842C4F223
:104370000202944204D00C4840F2D9110DF0E6F844
:10438000012D09D908484FF4ED710DF0DFF82168CF
:1043900041F00102226038BD002DF8D1236823F0DE
:1043A0000100206038BD00BF80EF010838B546F23B
:1043B0001003C4F20203984204460D465ED046F252
:1043C0002800C4F20200844258D046F24001C4F2F0
:1043D00002018C4252D046F25802C4F202029442C8
:1043E0004CD046F27003C4F202039C4246D046F21F
:1043F0008800C4F20200844240D046F2A001C4F218
:1044000002018C423AD046F2B802C4F2020294424F
:1044100034D046F21043C4F202039C422ED046F23E
:104420002840C4F20200844228D046F24041C4F23F
:1044300002018C4222D046F25842C4F20202944257
:104440001CD046F27043C4F202039C4216D046F2DE
:104450008840C4F20200844210D046F2A041C4F267
:1044600002018C420AD046F2B842C4F202029442DF
:1044700004D00C4840F2FD110DF068F865B1B5F5B7
:10448000004F04D007484FF4FF710DF05FF821682A
:1044900041F40042226038BD236823F400402060CC
:1044A00038BD00BF80EF010838B546F21003C4F2F2
:1044B0000203984204460D465ED046F22800C4F23C
:1044C0000200844258D046F24001C4F202018C42FC
:1044D00052D046F25802C4F2020294424CD046F244
:1044E0007003C4F202039C4246D046F28800C4F234
:1044F0000200844240D046F2A001C4F202018C4284
:104500003AD046F2B802C4F20202944234D046F2E3
:104510001043C4F202039C422ED046F22840C4F25B
:104520000200844228D046F24041C4F202018C428B
:1045300022D046F25842C4F2020294421CD046F203
:104540007043C4F202039C4216D046F28840C4F283
:104550000200844210D046F2A041C4F202018C4213
:104560000AD046F2B842C4F20202944204D00B4888
:1045700040F221210CF0EAFF5DB1202D04D0074864
:1045800040F222210CF0E2FF216841F0200222607B
:1045900038BD236823F02000206038BD80EF01087B
:1045A00038B546F21003C4F20203984204460D46A1
:1045B0005ED046F22800C4F20200844258D046F28F
:1045C0004001C4F202018C4252D046F25802C4F2B9
:1045D000020294424CD046F27003C4F202039C42A1
:1045E00046D046F28800C4F20200844240D046F22F
:1045F000A001C4F202018C423AD046F2B802C4F2E1
:104600000202944234D046F21043C4F202039C42A8
:104610002ED046F22840C4F20200844228D046F24E
:104620004041C4F202018C4222D046F25842C4F208
:10463000020294421CD046F27043C4F202039C4230
:1046400016D046F28840C4F20200844210D046F2EE
:10465000A041C4F202018C420AD046F2B842C4F230
:104660000202944204D0034840F275210CF06EFF20
:10467000656038BD80EF010846F21003C4F2020302
:10468000984210B504465ED046F22800C4F20200FB
:10469000844258D046F24001C4F202018C4252D00A
:1046A00046F25802C4F2020294424CD046F2700321
:1046B000C4F202039C4246D046F28800C4F20200D3
:1046C000844240D046F2A001C4F202018C423AD0AA
:1046D00046F2B802C4F20202944234D046F21043C9
:1046E000C4F202039C422ED046F22840C4F20200DB
:1046F000844228D046F24041C4F202018C4222D0CA
:1047000046F25842C4F2020294421CD046F2704370
:10471000C4F202039C4216D046F28840C4F2020062
:10472000844210D046F2A041C4F202018C420AD069
:1047300046F2B842C4F20202944204D003484FF455
:1047400021710CF003FF636898B210BD80EF01087F
:1047500030B546F21003C4F20203984283B0044617
:104760000D4660D046F22800C4F2020084425AD0BE
:1047700046F24001C4F202018C4254D046F2580382
:10478000C4F202039C424ED046F27000C4F2020012
:10479000844248D046F28801C4F202018C4242D0E1
:1047A00046F2A003C4F202039C423CD046F2B80099
:1047B000C4F20200844236D046F21041C4F2020133
:1047C0008C4230D046F22843C4F202039C422AD0E5
:1047D00046F24040C4F20200844224D046F25841DE
:1047E000C4F202018C421ED046F27043C4F20203AE
:1047F0009C4218D046F28840C4F20200844212D093
:1048000046F2A041C4F202018C420CD046F2B843F9
:10481000C4F202039C4206D00D48019240F2D2211C
:104820000CF094FE019A72B1B2F5002F04D0084842
:1048300040F2D3210CF08AFE216841F4002323606A
:10484000256103B030BD226822F400202060F7E724
:1048500080EF010838B546F21003C4F20203984213
:1048600004460D465ED046F22800C4F2020084429F
:1048700058D046F24001C4F202018C4252D046F2B6
:104880005802C4F2020294424CD046F27003C4F2C1
:1048900002039C4246D046F28800C4F202008442E1
:1048A00040D046F2A001C4F202018C423AD046F256
:1048B000B802C4F20202944234D046F21043C4F269
:1048C00002039C422ED046F22840C4F202008442E9
:1048D00028D046F24041C4F202018C4222D046F276
:1048E0005842C4F2020294421CD046F27043C4F211
:1048F00002039C4216D046F28840C4F20200844271
:1049000010D046F2A041C4F202018C420AD046F215
:10491000B842C4F20202944204D00C484FF43C71F5
:104920000CF014FE012D09D9084840F2F1210CF0D9
:104930000DFE216841F48022226038BD002DF8D19F
:10494000236823F48020206038BD00BF80EF010879
:1049500030B546F21003C4F20203984283B0044615
:104960000D4660D046F22800C4F2020084425AD0BC
:1049700046F24001C4F202018C4254D046F2580380
:10498000C4F202039C424ED046F27000C4F2020010
:10499000844248D046F28801C4F202018C4242D0DF
:1049A00046F2A003C4F202039C423CD046F2B80097
:1049B000C4F20200844236D046F21041C4F2020131
:1049C0008C4230D046F22843C4F202039C422AD0E3
:1049D00046F24040C4F20200844224D046F25841DC
:1049E000C4F202018C421ED046F27043C4F20203AC
:1049F0009C4218D046F28840C4F20200844212D091
:104A000046F2A041C4F202018C420CD046F2B843F7
:104A1000C4F202039C4206D00A48019240F21A31C5
:104A20000CF094FD019A52B1B2F5002F04D0054864
:104A300040F21B310CF08AFD256103B030BDE5600A
:104A4000FBE700BF80EF010846F21003C4F2020347
:104A5000984210B504465ED046F22800C4F2020027
:104A6000844258D046F24001C4F202018C4252D036
:104A700046F25802C4F2020294424CD046F270034D
:104A8000C4F202039C4246D046F28800C4F20200FF
:104A9000844240D046F2A001C4F202018C423AD0D6
:104AA00046F2B802C4F20202944234D046F21043F5
:104AB000C4F202039C422ED046F22840C4F2020007
:104AC000844228D046F24041C4F202018C4222D0F6
:104AD00046F25842C4F2020294421CD046F270439D
:104AE000C4F202039C4216D046F28840C4F202008F
:104AF000844210D046F2A041C4F202018C420AD096
:104B000046F2B842C4F20202944204D0044840F291
:104B100035310CF01BFD2368C3F3C04010BD00BF4E
:104B200080EF010846F21003C4F20203984210B568
:104B300004465ED046F22800C4F20200844258D0F7
:104B400046F24001C4F202018C4252D046F25802B1
:104B5000C4F2020294424CD046F27003C4F2020343
:104B60009C4246D046F28800C4F20200844240D003
:104B700046F2A001C4F202018C423AD046F2B802D9
:104B8000C4F20202944234D046F21043C4F202034B
:104B90009C422ED046F22840C4F20200844228D023
:104BA00046F24041C4F202018C4222D046F2584201
:104BB000C4F2020294421CD046F27043C4F20203D3
:104BC0009C4216D046F28840C4F20200844210D0C3
:104BD00046F2A041C4F202018C420AD046F2B84229
:104BE000C4F20202944204D0044840F2A2310CF014
:104BF000ADFC236803F0010010BD00BF80EF010889
:104C000046F21003C4F20203984210B504465ED087
:104C100046F22800C4F20200844258D046F2400115
:104C2000C4F202018C4252D046F25802C4F202028F
:104C300094424CD046F27003C4F202039C4246D028
:104C400046F28800C4F20200844240D046F2A0013D
:104C5000C4F202018C423AD046F2B802C4F2020217
:104C6000944234D046F21043C4F202039C422ED048
:104C700046F22840C4F20200844228D046F2404165
:104C8000C4F202018C4222D046F25842C4F202021F
:104C900094421CD046F27043C4F202039C4216D0E8
:104CA00046F28840C4F20200844210D046F2A0418D
:104CB000C4F202018C420AD046F2B842C4F20202A7
:104CC000944204D004484FF471710CF03FFC6369C6
:104CD00003F0380010BD00BF80EF010838B546F280
:104CE0001003C4F20203984204460D465ED046F219
:104CF0002800C4F20200844258D046F24001C4F2B7
:104D000002018C4252D046F25802C4F2020294428E
:104D10004CD046F27003C4F202039C4246D046F2E5
:104D20008800C4F20200844240D046F2A001C4F2DE
:104D300002018C423AD046F2B802C4F20202944216
:104D400034D046F21043C4F202039C422ED046F205
:104D50002840C4F20200844228D046F24041C4F206
:104D600002018C4222D046F25842C4F2020294421E
:104D70001CD046F27043C4F202039C4216D046F2A5
:104D80008840C4F20200844210D046F2A041C4F22E
:104D900002018C420AD046F2B842C4F202029442A6
:104DA00004D0764840F2E1310CF0D0FB2023C1F270
:104DB00000039D4200F0C5801020C1F20000854232
:104DC00000F0BF800821C1F200018D4200F0B980DF
:104DD0000422C1F28002954200F0B3800123C1F2A7
:104DE00080039D4200F0AD804FF40060C1F20000EE
:104DF000854200F0A6804FF48061C1F200018D422F
:104E000000F09F804FF40072C1F20002954200F062
:104E100098804FF48073C1F200039D4200F09180AE
:104E20004020C1F20000854200F08B80B5F1815F27
:104E300000F087800021C1F210018D4200F08180D6
:104E40000022C1F2080295427BD00023C1F2040384
:104E50009D4276D00020C1F20100854271D0B5F1AB
:104E6000C05F6ED0B5F1A05F6BD0B5F1905F68D038
:104E7000B5F1885F65D0B5F1825F62D02021C2F2C2
:104E800000018D425DD01022C2F20002954258D03E
:104E90000823C2F200039D4253D00420C2F2000056
:104EA00085424ED00121C2F200018D4249D04FF41B
:104EB0000062C2F20002954243D04FF48063C2F216
:104EC00000039D423DD04FF40070C2F200008542C5
:104ED00037D04FF48071C2F200018D4231D04022B0
:104EE000C2F2000295422CD00023C2F220039D4260
:104EF00027D00020C2F21000854222D00021C2F249
:104F000008018D421DD00022C2F20402954218D041
:104F10000023C2F201039D4213D0B5F1205F10D0EF
:104F2000B5F1105F0DD0B5F1085F0AD0B5F1045F9F
:104F300007D0B5F1015F04D0104840F2E2310CF027
:104F400005FB46F20F404FF4C8414FF4C042C4F293
:104F50000200C4F20201C4F2020284428CBF0C4679
:104F60001446AB004CBF6368236825F0F02525F09C
:104F700082151D420CBF0020012038BD80EF0108C2
:104F800038B546F21003C4F20203984204460D46B7
:104F90005ED046F22800C4F20200844258D046F2A5
:104FA0004001C4F202018C4252D046F25802C4F2CF
:104FB000020294424CD046F27003C4F202039C42B7
:104FC00046D046F28800C4F20200844240D046F245
:104FD000A001C4F202018C423AD046F2B802C4F2F7
:104FE0000202944234D046F21043C4F202039C42BF
:104FF0002ED046F22840C4F20200844228D046F265
:105000004041C4F202018C4222D046F25842C4F21E
:10501000020294421CD046F27043C4F202039C4246
:1050200016D046F28840C4F20200844210D046F204
:10503000A041C4F202018C420AD046F2B842C4F246
:105040000202944204D0194840F222410CF07EFA48
:1050500005F04053B3F1405F00D0F3B9134840F27C
:1050600023410CF073FA46F20F414FF4C8424FF45B
:10507000C043C4F20201C4F20202C4F202038C4231
:105080008CBF14461C4615F0005F25F0F02525F076
:10509000821514BFE560A56038BD4FF28200CCF2E6
:1050A000820028400028DED0D8E700BF80EF01084A
:1050B00046F21003C4F20203984270B504460D464E
:1050C00016465ED046F22800C4F20200844258D050
:1050D00046F24001C4F202018C4252D046F258021C
:1050E000C4F2020294424CD046F27003C4F20203AE
:1050F0009C4246D046F28800C4F20200844240D06E
:1051000046F2A001C4F202018C423AD046F2B80243
:10511000C4F20202944234D046F21043C4F20203B5
:105120009C422ED046F22840C4F20200844228D08D
:1051300046F24041C4F202018C4222D046F258426B
:10514000C4F2020294421CD046F27043C4F202033D
:105150009C4216D046F28840C4F20200844210D02D
:1051600046F2A041C4F202018C420AD046F2B84293
:10517000C4F20202944204D01A4840F24F410CF0AB
:10518000E5F935F09E0316D1ADB1012E04D91548CD
:1051900040F251410CF0DAF92A0612D56369DEB10A
:1051A00043F08002802D626115D0236805F01E0552
:1051B0001D43256070BD0B484FF48A610CF0C6F9A1
:1051C000E3E7802D07D0002EEFD1216805F01E0502
:1051D00021EA0505256070BD23F08000802D606107
:1051E000F3D170BD80EF010846F21003C4F2020350
:1051F000984270B504460D465ED046F22800C4F2CF
:105200000200844258D046F24001C4F202018C42AE
:1052100052D046F25802C4F2020294424CD046F2F6
:105220007006C4F20206B44246D046F28803C4F2C5
:1052300002039C4240D046F2A000C4F20200844225
:105240003AD046F2B801C4F202018C4234D046F2A0
:105250001042C4F2020294422ED046F22846C4F212
:105260000206B44228D046F24043C4F202039C42F4
:1052700022D046F25840C4F2020084421CD046F2CA
:105280007041C4F202018C4216D046F28842C4F248
:105290000202944210D046F2A046C4F20206B44282
:1052A0000AD046F2B843C4F202039C4204D09648A6
:1052B00040F287410CF04AF948F22000C1F20000A8
:1052C000854200F0F88044F21001C1F200018D42E5
:1052D00000F0F18042F20802C1F20002954200F0B3
:1052E000EA8041F20406C1F20006B54200F0E38014
:1052F0000123C9F200039D4200F0DD804FF4084015
:10530000C1F20000854200F0D6804FF48841C1F21E
:1053100000018D4200F0CF804FF40852C1F200022C
:10532000954200F0C8804FF48856C1F20006B5429D
:1053300000F0C1804023C9F200039D4200F0BB8011
:105340004FF40040C1F22000854200F0B4804FF4D9
:105350008041C1F210018D4200F0AD804FF4005247
:10536000C1F20802954200F0A6804FF48056C1F2C7
:105370000406B54200F09F800023C9F201039D425C
:1053800000F099804FF40040C1F60000854200F023
:1053900092804FF48041C1F200418D4200F08B8039
:1053A0004FF40052C1F20022954200F084804FF485
:1053B0008056C1F20016B5427DD00023C9F24003E9
:1053C0009D4278D048F22000C2F20000854272D09F
:1053D00044F21001C2F200018D426CD042F2080288
:1053E000C2F20002954266D041F20406C2F2000603
:1053F000B54260D00123CAF200039D425BD04FF456
:105400000840C2F20000854255D04FF48841C2F2F4
:1054100000018D424FD04FF40852C2F20002954273
:1054200049D04FF48856C2F20006B54243D040231B
:10543000CAF200039D423ED04FF40040C2F2200069
:10544000854238D04FF48041C2F210018D4232D0F3
:105450004FF40052C2F2080295422CD04FF480560D
:10546000C2F20406B54226D00023CAF201039D42CF
:1054700021D04FF40040C2F6000085421BD04FF40B
:105480008041C2F200418D4215D04FF40052C2F269
:10549000002295420FD04FF48056C2F20016B5425A
:1054A00009D00023CAF240039D4204D016484FF4AD
:1054B00091610CF04BF846F20F414FF4C8424FF4A3
:1054C000C04325F0F020C4F20201C4F20202C4F28B
:1054D000020320F0C3168C4288BF134686B12168B0
:1054E00001F01E0202EAD522A9004CBF5B681B68CE
:1054F00020F08210184002D0101C18BF012070BD8F
:10550000616901F08002EFE780EF010838B546F2EB
:105510001003C4F20203984204460D465ED046F2E0
:105520002800C4F20200844258D046F24001C4F27E
:1055300002018C4252D046F25802C4F20202944256
:105540004CD046F27003C4F202039C4246D046F2AD
:105550008800C4F20200844240D046F2A001C4F2A6
:1055600002018C423AD046F2B802C4F202029442DE
:1055700034D046F21043C4F202039C422ED046F2CD
:105580002840C4F20200844228D046F24041C4F2CE
:1055900002018C4222D046F25842C4F202029442E6
:1055A0001CD046F27043C4F202039C4216D046F26D
:1055B0008840C4F20200844210D046F2A041C4F2F6
:1055C00002018C420AD046F2B842C4F2020294426E
:1055D00004D0184840F2D7410BF0B8FF05F0405313
:1055E000B3F1405F00D0F3B912484FF49B610BF068
:1055F000ADFF46F20F414FF4C8424FF4C043C4F22E
:105600000201C4F20202C4F202038C428CBF1446AF
:105610001C4615F0005F25F0F02525F0821514BF1B
:10562000E560A56038BD8220C4F2820028400028D1
:10563000DFD0D9E780EF01084FF47053C4F20103C3
:105640004FF6FF710022C0F27F011A605A609A6023
:10565000DA605961704700BF037970B504462BB119
:10566000042B03D02E487C210BF070FF60790828B2
:1056700007D00C2805D0102803D029487D210BF035
:1056800065FF2168CA0D33D1002931D0A279012AE2
:1056900004D923487F210BF059FFA279002A2CD08E
:1056A0004FF47053C4F2010321681E6822796579B2
:1056B000C84306401E605E6802F1804202F59E32D9
:1056C0003040586010680143116022689868D143E7
:1056D00008409860D868102D01EA0001D96017D001
:1056E00005F1804505F59E352B681A432A6070BD8B
:1056F0000B487E210BF02AFFC8E72379206803F1CD
:10570000804101F59E331A6822EA00021A6070BDDA
:10571000996811439960D8680243DA6070BD00BF90
:10572000B4EF010800230C220360037142718371FE
:10573000704700BFC30D10B5044600D118B9064824
:10574000C1210BF003FF4FF47053C4F201031A6937
:1057500014431C6110BD00BFB4EF0108431E012BB0
:1057600010B504463CD904283AD0082838D010286F
:1057700036D0202834D0402832D0802830D0B0F520
:10578000807F2DD0B0F5007F2AD0B0F5806F27D074
:10579000B0F5006F24D0B0F5805F21D0B0F5005F88
:1057A0001ED0B0F5804F1BD0B0F5004F18D0B0F52B
:1057B000803F15D0B0F5003F12D0B0F5802F0FD04C
:1057C000B0F5002F0CD0B0F5801F09D0B0F5001F48
:1057D00006D0B0F5800F03D00648E0210BF0B6FEEE
:1057E0004FF47050C4F2010041690C420CBF00201C
:1057F000012010BDB4EF0108C30D10B5044600D15F
:1058000018B90548F6210BF0A1FE4FF47053C4F20D
:1058100001035C6110BD00BFB4EF0108431E012B02
:1058200010B504463DD904283BD0082839D01028AB
:1058300037D0202835D0402833D0802831D0B0F55B
:10584000807F2ED0B0F5007F2BD0B0F5806F28D0B0
:10585000B0F5006F25D0B0F5805F22D0B0F5005FC5
:105860001FD0B0F5804F1CD0B0F5004F19D0B0F567
:10587000803F16D0B0F5003F13D0B0F5802F10D088
:10588000B0F5002F0DD0B0F5801F0AD0B0F5001F85
:1058900007D0B0F5800F04D009484FF483710BF0A6
:1058A00055FE4FF47050C4F201000268416914EAD9
:1058B000010003D014420CBF0020012010BD00BF26
:1058C000B4EF0108C30D10B5044600D120B9054856
:1058D00040F21D110BF03AFE4FF47053C4F2010375
:1058E0005C6110BDB4EF0108072810B5044603D968
:1058F0000548A9210BF02AFE4FF47053C4F20203AD
:10590000E4B21C7010BD00BFE8EF0108012808B523
:105910000CD90C48B8210BF019FE4FF47051C4F2A9
:1059200002010B6843F480720A6008BD0028F4D1BC
:105930004FF47053C4F202031A6822F480701860A6
:1059400008BD00BFE8EF0108012808B50CD90C48D4
:10595000CE210BF0FBFD4FF47051C4F202010B6835
:1059600043F400720A6008BD0028F4D14FF470536C
:10597000C4F202031A6822F40070186008BD00BF68
:10598000E8EF0108012808B50CD90C48E3210BF019
:10599000DDFD4FF47051C4F202010B6843F48062E4
:1059A0000A6008BD0028F4D14FF47053C4F202031A
:1059B0001A6822F48060186008BD00BFE8EF010893
:1059C0004FF47053C4F202031A6842F40060186086
:1059D000704700BF4FF47053C4F202031A6842F4D8
:1059E00080501860704700BF4FF47053C4F2020338
:1059F0001A69002A09DA40F2231148F6AB10C4F202
:105A00006751CCF6EF505960586070474FF47053AF
:105A1000C4F202031A6942F000401861704700BFE7
:105A20004FF47053C4F202035A69D20709D542F603
:105A30003B2146F67F60C0F61901C4F65D409960CF
:105A4000986070474FF47053C4F202035A6942F0F1
:105A500001005861704700BF082810B5044609D0FE
:105A6000042807D030B10C2804D008484FF4467100
:105A70000BF06CFD43F61443C4F202031A7802F0F3
:105A8000F300187019780C431C7010BDE8EF010882
:105A90004FF47053C4F202035869C0F347107047C3
:105AA00043F61643C4F20203188880B2704700BF61
:105AB00043F61543C4F202031878AA3818BF012030
:105AC000704700BF43F61443C4F20203187800F095
:105AD0000C00704738B530F0407304460D460FD1C6
